{
  "contractName": "mintSBT",
  "abi": [
    {
      "inputs": [],
      "stateMutability": "nonpayable",
      "type": "constructor"
    },
    {
      "anonymous": false,
      "inputs": [
        {
          "indexed": true,
          "internalType": "address",
          "name": "owner",
          "type": "address"
        },
        {
          "indexed": true,
          "internalType": "address",
          "name": "approved",
          "type": "address"
        },
        {
          "indexed": true,
          "internalType": "uint256",
          "name": "tokenId",
          "type": "uint256"
        }
      ],
      "name": "Approval",
      "type": "event"
    },
    {
      "anonymous": false,
      "inputs": [
        {
          "indexed": true,
          "internalType": "address",
          "name": "owner",
          "type": "address"
        },
        {
          "indexed": true,
          "internalType": "address",
          "name": "operator",
          "type": "address"
        },
        {
          "indexed": false,
          "internalType": "bool",
          "name": "approved",
          "type": "bool"
        }
      ],
      "name": "ApprovalForAll",
      "type": "event"
    },
    {
      "anonymous": false,
      "inputs": [
        {
          "indexed": false,
          "internalType": "uint256",
          "name": "tokenId",
          "type": "uint256"
        }
      ],
      "name": "Locked",
      "type": "event"
    },
    {
      "anonymous": false,
      "inputs": [
        {
          "indexed": true,
          "internalType": "address",
          "name": "previousOwner",
          "type": "address"
        },
        {
          "indexed": true,
          "internalType": "address",
          "name": "newOwner",
          "type": "address"
        }
      ],
      "name": "OwnershipTransferred",
      "type": "event"
    },
    {
      "anonymous": false,
      "inputs": [
        {
          "indexed": true,
          "internalType": "address",
          "name": "from",
          "type": "address"
        },
        {
          "indexed": true,
          "internalType": "address",
          "name": "to",
          "type": "address"
        },
        {
          "indexed": true,
          "internalType": "uint256",
          "name": "tokenId",
          "type": "uint256"
        }
      ],
      "name": "Transfer",
      "type": "event"
    },
    {
      "anonymous": false,
      "inputs": [
        {
          "indexed": false,
          "internalType": "uint256",
          "name": "tokenId",
          "type": "uint256"
        }
      ],
      "name": "Unlocked",
      "type": "event"
    },
    {
      "inputs": [
        {
          "internalType": "address",
          "name": "to",
          "type": "address"
        },
        {
          "internalType": "uint256",
          "name": "tokenId",
          "type": "uint256"
        }
      ],
      "name": "approve",
      "outputs": [],
      "stateMutability": "nonpayable",
      "type": "function"
    },
    {
      "inputs": [
        {
          "internalType": "address",
          "name": "owner",
          "type": "address"
        }
      ],
      "name": "balanceOf",
      "outputs": [
        {
          "internalType": "uint256",
          "name": "",
          "type": "uint256"
        }
      ],
      "stateMutability": "view",
      "type": "function"
    },
    {
      "inputs": [
        {
          "internalType": "uint256",
          "name": "tokenId",
          "type": "uint256"
        }
      ],
      "name": "burn",
      "outputs": [],
      "stateMutability": "nonpayable",
      "type": "function"
    },
    {
      "inputs": [
        {
          "internalType": "uint256",
          "name": "tokenId",
          "type": "uint256"
        }
      ],
      "name": "getApproved",
      "outputs": [
        {
          "internalType": "address",
          "name": "",
          "type": "address"
        }
      ],
      "stateMutability": "view",
      "type": "function"
    },
    {
      "inputs": [
        {
          "internalType": "address",
          "name": "owner",
          "type": "address"
        },
        {
          "internalType": "address",
          "name": "operator",
          "type": "address"
        }
      ],
      "name": "isApprovedForAll",
      "outputs": [
        {
          "internalType": "bool",
          "name": "",
          "type": "bool"
        }
      ],
      "stateMutability": "view",
      "type": "function"
    },
    {
      "inputs": [],
      "name": "name",
      "outputs": [
        {
          "internalType": "string",
          "name": "",
          "type": "string"
        }
      ],
      "stateMutability": "view",
      "type": "function"
    },
    {
      "inputs": [],
      "name": "owner",
      "outputs": [
        {
          "internalType": "address",
          "name": "",
          "type": "address"
        }
      ],
      "stateMutability": "view",
      "type": "function"
    },
    {
      "inputs": [
        {
          "internalType": "uint256",
          "name": "tokenId",
          "type": "uint256"
        }
      ],
      "name": "ownerOf",
      "outputs": [
        {
          "internalType": "address",
          "name": "",
          "type": "address"
        }
      ],
      "stateMutability": "view",
      "type": "function"
    },
    {
      "inputs": [],
      "name": "renounceOwnership",
      "outputs": [],
      "stateMutability": "nonpayable",
      "type": "function"
    },
    {
      "inputs": [
        {
          "internalType": "address",
          "name": "from",
          "type": "address"
        },
        {
          "internalType": "address",
          "name": "to",
          "type": "address"
        },
        {
          "internalType": "uint256",
          "name": "tokenId",
          "type": "uint256"
        }
      ],
      "name": "safeTransferFrom",
      "outputs": [],
      "stateMutability": "nonpayable",
      "type": "function"
    },
    {
      "inputs": [
        {
          "internalType": "address",
          "name": "from",
          "type": "address"
        },
        {
          "internalType": "address",
          "name": "to",
          "type": "address"
        },
        {
          "internalType": "uint256",
          "name": "tokenId",
          "type": "uint256"
        },
        {
          "internalType": "bytes",
          "name": "data",
          "type": "bytes"
        }
      ],
      "name": "safeTransferFrom",
      "outputs": [],
      "stateMutability": "nonpayable",
      "type": "function"
    },
    {
      "inputs": [
        {
          "internalType": "address",
          "name": "operator",
          "type": "address"
        },
        {
          "internalType": "bool",
          "name": "approved",
          "type": "bool"
        }
      ],
      "name": "setApprovalForAll",
      "outputs": [],
      "stateMutability": "nonpayable",
      "type": "function"
    },
    {
      "inputs": [],
      "name": "symbol",
      "outputs": [
        {
          "internalType": "string",
          "name": "",
          "type": "string"
        }
      ],
      "stateMutability": "view",
      "type": "function"
    },
    {
      "inputs": [
        {
          "internalType": "uint256",
          "name": "index",
          "type": "uint256"
        }
      ],
      "name": "tokenByIndex",
      "outputs": [
        {
          "internalType": "uint256",
          "name": "",
          "type": "uint256"
        }
      ],
      "stateMutability": "view",
      "type": "function"
    },
    {
      "inputs": [
        {
          "internalType": "address",
          "name": "owner",
          "type": "address"
        },
        {
          "internalType": "uint256",
          "name": "index",
          "type": "uint256"
        }
      ],
      "name": "tokenOfOwnerByIndex",
      "outputs": [
        {
          "internalType": "uint256",
          "name": "",
          "type": "uint256"
        }
      ],
      "stateMutability": "view",
      "type": "function"
    },
    {
      "inputs": [],
      "name": "totalSupply",
      "outputs": [
        {
          "internalType": "uint256",
          "name": "",
          "type": "uint256"
        }
      ],
      "stateMutability": "view",
      "type": "function"
    },
    {
      "inputs": [
        {
          "internalType": "address",
          "name": "from",
          "type": "address"
        },
        {
          "internalType": "address",
          "name": "to",
          "type": "address"
        },
        {
          "internalType": "uint256",
          "name": "tokenId",
          "type": "uint256"
        }
      ],
      "name": "transferFrom",
      "outputs": [],
      "stateMutability": "nonpayable",
      "type": "function"
    },
    {
      "inputs": [
        {
          "internalType": "address",
          "name": "newOwner",
          "type": "address"
        }
      ],
      "name": "transferOwnership",
      "outputs": [],
      "stateMutability": "nonpayable",
      "type": "function"
    },
    {
      "inputs": [
        {
          "internalType": "uint256",
          "name": "",
          "type": "uint256"
        }
      ],
      "name": "user",
      "outputs": [
        {
          "internalType": "string",
          "name": "UserName",
          "type": "string"
        },
        {
          "internalType": "string",
          "name": "UserInformation",
          "type": "string"
        }
      ],
      "stateMutability": "view",
      "type": "function"
    },
    {
      "inputs": [
        {
          "internalType": "string",
          "name": "_tokenURI",
          "type": "string"
        },
        {
          "internalType": "address",
          "name": "account",
          "type": "address"
        },
        {
          "internalType": "string",
          "name": "_userName",
          "type": "string"
        },
        {
          "internalType": "string",
          "name": "_userInformation",
          "type": "string"
        }
      ],
      "name": "mintSBT2",
      "outputs": [
        {
          "internalType": "uint256",
          "name": "",
          "type": "uint256"
        }
      ],
      "stateMutability": "nonpayable",
      "type": "function"
    },
    {
      "inputs": [
        {
          "internalType": "uint256",
          "name": "tokenId",
          "type": "uint256"
        }
      ],
      "name": "locked",
      "outputs": [
        {
          "internalType": "bool",
          "name": "",
          "type": "bool"
        }
      ],
      "stateMutability": "view",
      "type": "function"
    },
    {
      "inputs": [
        {
          "internalType": "uint256",
          "name": "tokenId",
          "type": "uint256"
        }
      ],
      "name": "lockToken",
      "outputs": [],
      "stateMutability": "nonpayable",
      "type": "function"
    },
    {
      "inputs": [
        {
          "internalType": "bytes4",
          "name": "interfaceId",
          "type": "bytes4"
        }
      ],
      "name": "supportsInterface",
      "outputs": [
        {
          "internalType": "bool",
          "name": "",
          "type": "bool"
        }
      ],
      "stateMutability": "view",
      "type": "function"
    },
    {
      "inputs": [
        {
          "internalType": "uint256",
          "name": "tokenId",
          "type": "uint256"
        }
      ],
      "name": "tokenURI",
      "outputs": [
        {
          "internalType": "string",
          "name": "",
          "type": "string"
        }
      ],
      "stateMutability": "view",
      "type": "function"
    },
    {
      "inputs": [],
      "name": "showTokenId",
      "outputs": [
        {
          "internalType": "uint256",
          "name": "",
          "type": "uint256"
        }
      ],
      "stateMutability": "view",
      "type": "function"
    }
  ],
  "bytecode": "0x60806040523480156200001157600080fd5b506040518060400160405280600a81526020017f536f756c626f756e6432000000000000000000000000000000000000000000008152506040518060400160405280600481526020017f534254320000000000000000000000000000000000000000000000000000000081525081600090816200008f919062000412565b508060019081620000a1919062000412565b505050620000c4620000b8620000ca60201b60201c565b620000d260201b60201c565b620004f9565b600033905090565b6000600660009054906101000a900473ffffffffffffffffffffffffffffffffffffffff16905081600660006101000a81548173ffffffffffffffffffffffffffffffffffffffff021916908373ffffffffffffffffffffffffffffffffffffffff1602179055508173ffffffffffffffffffffffffffffffffffffffff168173ffffffffffffffffffffffffffffffffffffffff167f8be0079c531659141344cd1fd0a4f28419497f9722a3daafe3b4186f6b6457e060405160405180910390a35050565b600081519050919050565b7f4e487b7100000000000000000000000000000000000000000000000000000000600052604160045260246000fd5b7f4e487b7100000000000000000000000000000000000000000000000000000000600052602260045260246000fd5b600060028204905060018216806200021a57607f821691505b60208210810362000230576200022f620001d2565b5b50919050565b60008190508160005260206000209050919050565b60006020601f8301049050919050565b600082821b905092915050565b6000600883026200029a7fffffffffffffffffffffffffffffffffffffffffffffffffffffffffffffffff826200025b565b620002a686836200025b565b95508019841693508086168417925050509392505050565b6000819050919050565b6000819050919050565b6000620002f3620002ed620002e784620002be565b620002c8565b620002be565b9050919050565b6000819050919050565b6200030f83620002d2565b620003276200031e82620002fa565b84845462000268565b825550505050565b600090565b6200033e6200032f565b6200034b81848462000304565b505050565b5b8181101562000373576200036760008262000334565b60018101905062000351565b5050565b601f821115620003c2576200038c8162000236565b62000397846200024b565b81016020851015620003a7578190505b620003bf620003b6856200024b565b83018262000350565b50505b505050565b600082821c905092915050565b6000620003e760001984600802620003c7565b1980831691505092915050565b6000620004028383620003d4565b9150826002028217905092915050565b6200041d8262000198565b67ffffffffffffffff811115620004395762000438620001a3565b5b62000445825462000201565b6200045282828562000377565b600060209050601f8311600181146200048a576000841562000475578287015190505b620004818582620003f4565b865550620004f1565b601f1984166200049a8662000236565b60005b82811015620004c4578489015182556001820191506020850194506020810190506200049d565b86831015620004e45784890151620004e0601f891682620003d4565b8355505b6001600288020188555050505b505050505050565b613ef080620005096000396000f3fe608060405234801561001057600080fd5b50600436106101735760003560e01c80636352211e116100de578063a22cb46511610097578063c87b56dd11610071578063c87b56dd1461046f578063ca56bb061461049f578063e985e9c5146104bd578063f2fde38b146104ed57610173565b8063a22cb46514610407578063b45a3c0e14610423578063b88d4fde1461045357610173565b80636352211e1461034557806370a0823114610375578063715018a6146103a557806380f20363146103af5780638da5cb5b146103cb57806395d89b41146103e957610173565b806323b872dd1161013057806323b872dd146102605780632f745c591461027c57806342842e0e146102ac57806342966c68146102c85780634f6ccce7146102e4578063553275be1461031457610173565b806301ffc9a71461017857806306fdde03146101a8578063081812fc146101c6578063095ea7b3146101f657806311120d8e1461021257806318160ddd14610242575b600080fd5b610192600480360381019061018d9190612968565b610509565b60405161019f91906129b0565b60405180910390f35b6101b061051b565b6040516101bd9190612a5b565b60405180910390f35b6101e060048036038101906101db9190612ab3565b6105ad565b6040516101ed9190612b21565b60405180910390f35b610210600480360381019061020b9190612b68565b6105f3565b005b61022c60048036038101906102279190612cdd565b61070a565b6040516102399190612da7565b60405180910390f35b61024a6107a3565b6040516102579190612da7565b60405180910390f35b61027a60048036038101906102759190612dc2565b6107b0565b005b61029660048036038101906102919190612b68565b610810565b6040516102a39190612da7565b60405180910390f35b6102c660048036038101906102c19190612dc2565b6108b5565b005b6102e260048036038101906102dd9190612ab3565b6108d5565b005b6102fe60048036038101906102f99190612ab3565b610931565b60405161030b9190612da7565b60405180910390f35b61032e60048036038101906103299190612ab3565b6109a2565b60405161033c929190612e15565b60405180910390f35b61035f600480360381019061035a9190612ab3565b610ad6565b60405161036c9190612b21565b60405180910390f35b61038f600480360381019061038a9190612e4c565b610b5c565b60405161039c9190612da7565b60405180910390f35b6103ad610c13565b005b6103c960048036038101906103c49190612ab3565b610c27565b005b6103d3610c8d565b6040516103e09190612b21565b60405180910390f35b6103f1610cb7565b6040516103fe9190612a5b565b60405180910390f35b610421600480360381019061041c9190612ea5565b610d49565b005b61043d60048036038101906104389190612ab3565b610d5f565b60405161044a91906129b0565b60405180910390f35b61046d60048036038101906104689190612f86565b610d89565b005b61048960048036038101906104849190612ab3565b610deb565b6040516104969190612a5b565b60405180910390f35b6104a7610dfd565b6040516104b49190612da7565b60405180910390f35b6104d760048036038101906104d29190613009565b610e0e565b6040516104e491906129b0565b60405180910390f35b61050760048036038101906105029190612e4c565b610ea2565b005b600061051482610f25565b9050919050565b60606000805461052a90613078565b80601f016020809104026020016040519081016040528092919081815260200182805461055690613078565b80156105a35780601f10610578576101008083540402835291602001916105a3565b820191906000526020600020905b81548152906001019060200180831161058657829003601f168201915b5050505050905090565b60006105b882610f9f565b6004600083815260200190815260200160002060009054906101000a900473ffffffffffffffffffffffffffffffffffffffff169050919050565b60006105fe82610ad6565b90508073ffffffffffffffffffffffffffffffffffffffff168373ffffffffffffffffffffffffffffffffffffffff160361066e576040517f08c379a00000000000000000000000000000000000000000000000000000000081526004016106659061311b565b60405180910390fd5b8073ffffffffffffffffffffffffffffffffffffffff1661068d610fea565b73ffffffffffffffffffffffffffffffffffffffff1614806106bc57506106bb816106b6610fea565b610e0e565b5b6106fb576040517f08c379a00000000000000000000000000000000000000000000000000000000081526004016106f2906131ad565b60405180910390fd5b6107058383610ff2565b505050565b60006107146110ab565b6000610720600c611129565b905061072c8582611137565b6107368187611155565b604051806040016040528085815260200184815250600d600083815260200190815260200160002060008201518160000190816107739190613379565b5060208201518160010190816107899190613379565b50905050610797600c6111c2565b80915050949350505050565b6000600980549050905090565b6107c16107bb610fea565b826111d8565b610800576040517f08c379a00000000000000000000000000000000000000000000000000000000081526004016107f7906134bd565b60405180910390fd5b61080b83838361126d565b505050565b600061081b83610b5c565b821061085c576040517f08c379a00000000000000000000000000000000000000000000000000000000081526004016108539061354f565b60405180910390fd5b600760008473ffffffffffffffffffffffffffffffffffffffff1673ffffffffffffffffffffffffffffffffffffffff168152602001908152602001600020600083815260200190815260200160002054905092915050565b6108d083838360405180602001604052806000815250610d89565b505050565b6108e66108e0610fea565b826111d8565b610925576040517f08c379a000000000000000000000000000000000000000000000000000000000815260040161091c906134bd565b60405180910390fd5b61092e81611566565b50565b600061093b6107a3565b821061097c576040517f08c379a0000000000000000000000000000000000000000000000000000000008152600401610973906135e1565b60405180910390fd5b600982815481106109905761098f613601565b5b90600052602060002001549050919050565b600d6020528060005260406000206000915090508060000180546109c590613078565b80601f01602080910402602001604051908101604052809291908181526020018280546109f190613078565b8015610a3e5780601f10610a1357610100808354040283529160200191610a3e565b820191906000526020600020905b815481529060010190602001808311610a2157829003601f168201915b505050505090806001018054610a5390613078565b80601f0160208091040260200160405190810160405280929190818152602001828054610a7f90613078565b8015610acc5780601f10610aa157610100808354040283529160200191610acc565b820191906000526020600020905b815481529060010190602001808311610aaf57829003601f168201915b5050505050905082565b600080610ae28361157b565b9050600073ffffffffffffffffffffffffffffffffffffffff168173ffffffffffffffffffffffffffffffffffffffff1603610b53576040517f08c379a0000000000000000000000000000000000000000000000000000000008152600401610b4a9061367c565b60405180910390fd5b80915050919050565b60008073ffffffffffffffffffffffffffffffffffffffff168273ffffffffffffffffffffffffffffffffffffffff1603610bcc576040517f08c379a0000000000000000000000000000000000000000000000000000000008152600401610bc39061370e565b60405180910390fd5b600360008373ffffffffffffffffffffffffffffffffffffffff1673ffffffffffffffffffffffffffffffffffffffff168152602001908152602001600020549050919050565b610c1b6110ab565b610c2560006115b8565b565b6001600e600083815260200190815260200160002060006101000a81548160ff0219169083151502179055507f032bc66be43dbccb7487781d168eb7bda224628a3b2c3388bdf69b532a3a161181604051610c829190612da7565b60405180910390a150565b6000600660009054906101000a900473ffffffffffffffffffffffffffffffffffffffff16905090565b606060018054610cc690613078565b80601f0160208091040260200160405190810160405280929190818152602001828054610cf290613078565b8015610d3f5780601f10610d1457610100808354040283529160200191610d3f565b820191906000526020600020905b815481529060010190602001808311610d2257829003601f168201915b5050505050905090565b610d5b610d54610fea565b838361167e565b5050565b6000600e600083815260200190815260200160002060009054906101000a900460ff169050919050565b610d9a610d94610fea565b836111d8565b610dd9576040517f08c379a0000000000000000000000000000000000000000000000000000000008152600401610dd0906134bd565b60405180910390fd5b610de5848484846117ea565b50505050565b6060610df682611846565b9050919050565b6000610e09600c611129565b905090565b6000600560008473ffffffffffffffffffffffffffffffffffffffff1673ffffffffffffffffffffffffffffffffffffffff16815260200190815260200160002060008373ffffffffffffffffffffffffffffffffffffffff1673ffffffffffffffffffffffffffffffffffffffff16815260200190815260200160002060009054906101000a900460ff16905092915050565b610eaa6110ab565b600073ffffffffffffffffffffffffffffffffffffffff168173ffffffffffffffffffffffffffffffffffffffff1603610f19576040517f08c379a0000000000000000000000000000000000000000000000000000000008152600401610f10906137a0565b60405180910390fd5b610f22816115b8565b50565b60007f780e9d63000000000000000000000000000000000000000000000000000000007bffffffffffffffffffffffffffffffffffffffffffffffffffffffff1916827bffffffffffffffffffffffffffffffffffffffffffffffffffffffff19161480610f985750610f9782611958565b5b9050919050565b610fa881611a3a565b610fe7576040517f08c379a0000000000000000000000000000000000000000000000000000000008152600401610fde9061367c565b60405180910390fd5b50565b600033905090565b816004600083815260200190815260200160002060006101000a81548173ffffffffffffffffffffffffffffffffffffffff021916908373ffffffffffffffffffffffffffffffffffffffff160217905550808273ffffffffffffffffffffffffffffffffffffffff1661106583610ad6565b73ffffffffffffffffffffffffffffffffffffffff167f8c5be1e5ebec7d5bd14f71427d1e84f3dd0314c0f7b2291e5b200ac8c7c3b92560405160405180910390a45050565b6110b3610fea565b73ffffffffffffffffffffffffffffffffffffffff166110d1610c8d565b73ffffffffffffffffffffffffffffffffffffffff1614611127576040517f08c379a000000000000000000000000000000000000000000000000000000000815260040161111e9061380c565b60405180910390fd5b565b600081600001549050919050565b611151828260405180602001604052806000815250611a7b565b5050565b61115e82611a3a565b61119d576040517f08c379a00000000000000000000000000000000000000000000000000000000081526004016111949061389e565b60405180910390fd5b80600b600084815260200190815260200160002090816111bd9190613379565b505050565b6001816000016000828254019250508190555050565b6000806111e483610ad6565b90508073ffffffffffffffffffffffffffffffffffffffff168473ffffffffffffffffffffffffffffffffffffffff16148061122657506112258185610e0e565b5b8061126457508373ffffffffffffffffffffffffffffffffffffffff1661124c846105ad565b73ffffffffffffffffffffffffffffffffffffffff16145b91505092915050565b8273ffffffffffffffffffffffffffffffffffffffff1661128d82610ad6565b73ffffffffffffffffffffffffffffffffffffffff16146112e3576040517f08c379a00000000000000000000000000000000000000000000000000000000081526004016112da90613930565b60405180910390fd5b600073ffffffffffffffffffffffffffffffffffffffff168273ffffffffffffffffffffffffffffffffffffffff1603611352576040517f08c379a0000000000000000000000000000000000000000000000000000000008152600401611349906139c2565b60405180910390fd5b61135f8383836001611ad6565b8273ffffffffffffffffffffffffffffffffffffffff1661137f82610ad6565b73ffffffffffffffffffffffffffffffffffffffff16146113d5576040517f08c379a00000000000000000000000000000000000000000000000000000000081526004016113cc90613930565b60405180910390fd5b6004600082815260200190815260200160002060006101000a81549073ffffffffffffffffffffffffffffffffffffffff02191690556001600360008573ffffffffffffffffffffffffffffffffffffffff1673ffffffffffffffffffffffffffffffffffffffff168152602001908152602001600020600082825403925050819055506001600360008473ffffffffffffffffffffffffffffffffffffffff1673ffffffffffffffffffffffffffffffffffffffff16815260200190815260200160002060008282540192505081905550816002600083815260200190815260200160002060006101000a81548173ffffffffffffffffffffffffffffffffffffffff021916908373ffffffffffffffffffffffffffffffffffffffff160217905550808273ffffffffffffffffffffffffffffffffffffffff168473ffffffffffffffffffffffffffffffffffffffff167fddf252ad1be2c89b69c2b068fc378daa952ba7f163c4a11628f55a4df523b3ef60405160405180910390a46115618383836001611b57565b505050565b61156f81611b5d565b61157881611bc3565b50565b60006002600083815260200190815260200160002060009054906101000a900473ffffffffffffffffffffffffffffffffffffffff169050919050565b6000600660009054906101000a900473ffffffffffffffffffffffffffffffffffffffff16905081600660006101000a81548173ffffffffffffffffffffffffffffffffffffffff021916908373ffffffffffffffffffffffffffffffffffffffff1602179055508173ffffffffffffffffffffffffffffffffffffffff168173ffffffffffffffffffffffffffffffffffffffff167f8be0079c531659141344cd1fd0a4f28419497f9722a3daafe3b4186f6b6457e060405160405180910390a35050565b8173ffffffffffffffffffffffffffffffffffffffff168373ffffffffffffffffffffffffffffffffffffffff16036116ec576040517f08c379a00000000000000000000000000000000000000000000000000000000081526004016116e390613a2e565b60405180910390fd5b80600560008573ffffffffffffffffffffffffffffffffffffffff1673ffffffffffffffffffffffffffffffffffffffff16815260200190815260200160002060008473ffffffffffffffffffffffffffffffffffffffff1673ffffffffffffffffffffffffffffffffffffffff16815260200190815260200160002060006101000a81548160ff0219169083151502179055508173ffffffffffffffffffffffffffffffffffffffff168373ffffffffffffffffffffffffffffffffffffffff167f17307eab39ab6107e8899845ad3d59bd9653f200f220920489ca2b5937696c31836040516117dd91906129b0565b60405180910390a3505050565b6117f584848461126d565b61180184848484611c16565b611840576040517f08c379a000000000000000000000000000000000000000000000000000000000815260040161183790613ac0565b60405180910390fd5b50505050565b606061185182610f9f565b6000600b6000848152602001908152602001600020805461187190613078565b80601f016020809104026020016040519081016040528092919081815260200182805461189d90613078565b80156118ea5780601f106118bf576101008083540402835291602001916118ea565b820191906000526020600020905b8154815290600101906020018083116118cd57829003601f168201915b5050505050905060006118fb611d9d565b90506000815103611910578192505050611953565b60008251111561194557808260405160200161192d929190613b1c565b60405160208183030381529060405292505050611953565b61194e84611db4565b925050505b919050565b60007f80ac58cd000000000000000000000000000000000000000000000000000000007bffffffffffffffffffffffffffffffffffffffffffffffffffffffff1916827bffffffffffffffffffffffffffffffffffffffffffffffffffffffff19161480611a2357507f5b5e139f000000000000000000000000000000000000000000000000000000007bffffffffffffffffffffffffffffffffffffffffffffffffffffffff1916827bffffffffffffffffffffffffffffffffffffffffffffffffffffffff1916145b80611a335750611a3282611e1c565b5b9050919050565b60008073ffffffffffffffffffffffffffffffffffffffff16611a5c8361157b565b73ffffffffffffffffffffffffffffffffffffffff1614159050919050565b611a858383611e86565b611a926000848484611c16565b611ad1576040517f08c379a0000000000000000000000000000000000000000000000000000000008152600401611ac890613ac0565b60405180910390fd5b505050565b600073ffffffffffffffffffffffffffffffffffffffff168473ffffffffffffffffffffffffffffffffffffffff1614611b45576040517f08c379a0000000000000000000000000000000000000000000000000000000008152600401611b3c90613b8c565b60405180910390fd5b611b51848484846120a3565b50505050565b50505050565b6000600e600083815260200190815260200160002060006101000a81548160ff0219169083151502179055507ff27b6ce5b2f5e68ddb2fd95a8a909d4ecf1daaac270935fff052feacb24f184281604051611bb89190612da7565b60405180910390a150565b611bcc81612201565b6000600b60008381526020019081526020016000208054611bec90613078565b905014611c1357600b60008281526020019081526020016000206000611c12919061289f565b5b50565b6000611c378473ffffffffffffffffffffffffffffffffffffffff1661234f565b15611d90578373ffffffffffffffffffffffffffffffffffffffff1663150b7a02611c60610fea565b8786866040518563ffffffff1660e01b8152600401611c829493929190613c01565b6020604051808303816000875af1925050508015611cbe57506040513d601f19601f82011682018060405250810190611cbb9190613c62565b60015b611d40573d8060008114611cee576040519150601f19603f3d011682016040523d82523d6000602084013e611cf3565b606091505b506000815103611d38576040517f08c379a0000000000000000000000000000000000000000000000000000000008152600401611d2f90613ac0565b60405180910390fd5b805181602001fd5b63150b7a0260e01b7bffffffffffffffffffffffffffffffffffffffffffffffffffffffff1916817bffffffffffffffffffffffffffffffffffffffffffffffffffffffff191614915050611d95565b600190505b949350505050565b606060405180602001604052806000815250905090565b6060611dbf82610f9f565b6000611dc9611d9d565b90506000815111611de95760405180602001604052806000815250611e14565b80611df384612372565b604051602001611e04929190613b1c565b6040516020818303038152906040525b915050919050565b60007f01ffc9a7000000000000000000000000000000000000000000000000000000007bffffffffffffffffffffffffffffffffffffffffffffffffffffffff1916827bffffffffffffffffffffffffffffffffffffffffffffffffffffffff1916149050919050565b600073ffffffffffffffffffffffffffffffffffffffff168273ffffffffffffffffffffffffffffffffffffffff1603611ef5576040517f08c379a0000000000000000000000000000000000000000000000000000000008152600401611eec90613cdb565b60405180910390fd5b611efe81611a3a565b15611f3e576040517f08c379a0000000000000000000000000000000000000000000000000000000008152600401611f3590613d47565b60405180910390fd5b611f4c600083836001611ad6565b611f5581611a3a565b15611f95576040517f08c379a0000000000000000000000000000000000000000000000000000000008152600401611f8c90613d47565b60405180910390fd5b6001600360008473ffffffffffffffffffffffffffffffffffffffff1673ffffffffffffffffffffffffffffffffffffffff16815260200190815260200160002060008282540192505081905550816002600083815260200190815260200160002060006101000a81548173ffffffffffffffffffffffffffffffffffffffff021916908373ffffffffffffffffffffffffffffffffffffffff160217905550808273ffffffffffffffffffffffffffffffffffffffff16600073ffffffffffffffffffffffffffffffffffffffff167fddf252ad1be2c89b69c2b068fc378daa952ba7f163c4a11628f55a4df523b3ef60405160405180910390a461209f600083836001611b57565b5050565b6120af84848484612440565b60018111156120f3576040517f08c379a00000000000000000000000000000000000000000000000000000000081526004016120ea90613dd9565b60405180910390fd5b6000829050600073ffffffffffffffffffffffffffffffffffffffff168573ffffffffffffffffffffffffffffffffffffffff160361213a5761213581612446565b612179565b8373ffffffffffffffffffffffffffffffffffffffff168573ffffffffffffffffffffffffffffffffffffffff161461217857612177858261248f565b5b5b600073ffffffffffffffffffffffffffffffffffffffff168473ffffffffffffffffffffffffffffffffffffffff16036121bb576121b6816125fc565b6121fa565b8473ffffffffffffffffffffffffffffffffffffffff168473ffffffffffffffffffffffffffffffffffffffff16146121f9576121f884826126cd565b5b5b5050505050565b600061220c82610ad6565b905061221c816000846001611ad6565b61222582610ad6565b90506004600083815260200190815260200160002060006101000a81549073ffffffffffffffffffffffffffffffffffffffff02191690556001600360008373ffffffffffffffffffffffffffffffffffffffff1673ffffffffffffffffffffffffffffffffffffffff168152602001908152602001600020600082825403925050819055506002600083815260200190815260200160002060006101000a81549073ffffffffffffffffffffffffffffffffffffffff021916905581600073ffffffffffffffffffffffffffffffffffffffff168273ffffffffffffffffffffffffffffffffffffffff167fddf252ad1be2c89b69c2b068fc378daa952ba7f163c4a11628f55a4df523b3ef60405160405180910390a461234b816000846001611b57565b5050565b6000808273ffffffffffffffffffffffffffffffffffffffff163b119050919050565b6060600060016123818461274c565b01905060008167ffffffffffffffff8111156123a05761239f612bb2565b5b6040519080825280601f01601f1916602001820160405280156123d25781602001600182028036833780820191505090505b509050600082602001820190505b600115612435578080600190039150507f3031323334353637383961626364656600000000000000000000000000000000600a86061a8153600a858161242957612428613df9565b5b049450600085036123e0575b819350505050919050565b50505050565b600980549050600a600083815260200190815260200160002081905550600981908060018154018082558091505060019003906000526020600020016000909190919091505550565b6000600161249c84610b5c565b6124a69190613e57565b905060006008600084815260200190815260200160002054905081811461258b576000600760008673ffffffffffffffffffffffffffffffffffffffff1673ffffffffffffffffffffffffffffffffffffffff168152602001908152602001600020600084815260200190815260200160002054905080600760008773ffffffffffffffffffffffffffffffffffffffff1673ffffffffffffffffffffffffffffffffffffffff168152602001908152602001600020600084815260200190815260200160002081905550816008600083815260200190815260200160002081905550505b6008600084815260200190815260200160002060009055600760008573ffffffffffffffffffffffffffffffffffffffff1673ffffffffffffffffffffffffffffffffffffffff16815260200190815260200160002060008381526020019081526020016000206000905550505050565b600060016009805490506126109190613e57565b90506000600a60008481526020019081526020016000205490506000600983815481106126405761263f613601565b5b90600052602060002001549050806009838154811061266257612661613601565b5b906000526020600020018190555081600a600083815260200190815260200160002081905550600a60008581526020019081526020016000206000905560098054806126b1576126b0613e8b565b5b6001900381819060005260206000200160009055905550505050565b60006126d883610b5c565b905081600760008573ffffffffffffffffffffffffffffffffffffffff1673ffffffffffffffffffffffffffffffffffffffff168152602001908152602001600020600083815260200190815260200160002081905550806008600084815260200190815260200160002081905550505050565b600080600090507a184f03e93ff9f4daa797ed6e38ed64bf6a1f01000000000000000083106127aa577a184f03e93ff9f4daa797ed6e38ed64bf6a1f01000000000000000083816127a05761279f613df9565b5b0492506040810190505b6d04ee2d6d415b85acef810000000083106127e7576d04ee2d6d415b85acef810000000083816127dd576127dc613df9565b5b0492506020810190505b662386f26fc10000831061281657662386f26fc10000838161280c5761280b613df9565b5b0492506010810190505b6305f5e100831061283f576305f5e100838161283557612834613df9565b5b0492506008810190505b612710831061286457612710838161285a57612859613df9565b5b0492506004810190505b60648310612887576064838161287d5761287c613df9565b5b0492506002810190505b600a8310612896576001810190505b80915050919050565b5080546128ab90613078565b6000825580601f106128bd57506128dc565b601f0160209004906000526020600020908101906128db91906128df565b5b50565b5b808211156128f85760008160009055506001016128e0565b5090565b6000604051905090565b600080fd5b600080fd5b60007fffffffff0000000000000000000000000000000000000000000000000000000082169050919050565b61294581612910565b811461295057600080fd5b50565b6000813590506129628161293c565b92915050565b60006020828403121561297e5761297d612906565b5b600061298c84828501612953565b91505092915050565b60008115159050919050565b6129aa81612995565b82525050565b60006020820190506129c560008301846129a1565b92915050565b600081519050919050565b600082825260208201905092915050565b60005b83811015612a055780820151818401526020810190506129ea565b60008484015250505050565b6000601f19601f8301169050919050565b6000612a2d826129cb565b612a3781856129d6565b9350612a478185602086016129e7565b612a5081612a11565b840191505092915050565b60006020820190508181036000830152612a758184612a22565b905092915050565b6000819050919050565b612a9081612a7d565b8114612a9b57600080fd5b50565b600081359050612aad81612a87565b92915050565b600060208284031215612ac957612ac8612906565b5b6000612ad784828501612a9e565b91505092915050565b600073ffffffffffffffffffffffffffffffffffffffff82169050919050565b6000612b0b82612ae0565b9050919050565b612b1b81612b00565b82525050565b6000602082019050612b366000830184612b12565b92915050565b612b4581612b00565b8114612b5057600080fd5b50565b600081359050612b6281612b3c565b92915050565b60008060408385031215612b7f57612b7e612906565b5b6000612b8d85828601612b53565b9250506020612b9e85828601612a9e565b9150509250929050565b600080fd5b600080fd5b7f4e487b7100000000000000000000000000000000000000000000000000000000600052604160045260246000fd5b612bea82612a11565b810181811067ffffffffffffffff82111715612c0957612c08612bb2565b5b80604052505050565b6000612c1c6128fc565b9050612c288282612be1565b919050565b600067ffffffffffffffff821115612c4857612c47612bb2565b5b612c5182612a11565b9050602081019050919050565b82818337600083830152505050565b6000612c80612c7b84612c2d565b612c12565b905082815260208101848484011115612c9c57612c9b612bad565b5b612ca7848285612c5e565b509392505050565b600082601f830112612cc457612cc3612ba8565b5b8135612cd4848260208601612c6d565b91505092915050565b60008060008060808587031215612cf757612cf6612906565b5b600085013567ffffffffffffffff811115612d1557612d1461290b565b5b612d2187828801612caf565b9450506020612d3287828801612b53565b935050604085013567ffffffffffffffff811115612d5357612d5261290b565b5b612d5f87828801612caf565b925050606085013567ffffffffffffffff811115612d8057612d7f61290b565b5b612d8c87828801612caf565b91505092959194509250565b612da181612a7d565b82525050565b6000602082019050612dbc6000830184612d98565b92915050565b600080600060608486031215612ddb57612dda612906565b5b6000612de986828701612b53565b9350506020612dfa86828701612b53565b9250506040612e0b86828701612a9e565b9150509250925092565b60006040820190508181036000830152612e2f8185612a22565b90508181036020830152612e438184612a22565b90509392505050565b600060208284031215612e6257612e61612906565b5b6000612e7084828501612b53565b91505092915050565b612e8281612995565b8114612e8d57600080fd5b50565b600081359050612e9f81612e79565b92915050565b60008060408385031215612ebc57612ebb612906565b5b6000612eca85828601612b53565b9250506020612edb85828601612e90565b9150509250929050565b600067ffffffffffffffff821115612f0057612eff612bb2565b5b612f0982612a11565b9050602081019050919050565b6000612f29612f2484612ee5565b612c12565b905082815260208101848484011115612f4557612f44612bad565b5b612f50848285612c5e565b509392505050565b600082601f830112612f6d57612f6c612ba8565b5b8135612f7d848260208601612f16565b91505092915050565b60008060008060808587031215612fa057612f9f612906565b5b6000612fae87828801612b53565b9450506020612fbf87828801612b53565b9350506040612fd087828801612a9e565b925050606085013567ffffffffffffffff811115612ff157612ff061290b565b5b612ffd87828801612f58565b91505092959194509250565b600080604083850312156130205761301f612906565b5b600061302e85828601612b53565b925050602061303f85828601612b53565b9150509250929050565b7f4e487b7100000000000000000000000000000000000000000000000000000000600052602260045260246000fd5b6000600282049050600182168061309057607f821691505b6020821081036130a3576130a2613049565b5b50919050565b7f4552433732313a20617070726f76616c20746f2063757272656e74206f776e6560008201527f7200000000000000000000000000000000000000000000000000000000000000602082015250565b60006131056021836129d6565b9150613110826130a9565b604082019050919050565b60006020820190508181036000830152613134816130f8565b9050919050565b7f4552433732313a20617070726f76652063616c6c6572206973206e6f7420746f60008201527f6b656e206f776e6572206f7220617070726f76656420666f7220616c6c000000602082015250565b6000613197603d836129d6565b91506131a28261313b565b604082019050919050565b600060208201905081810360008301526131c68161318a565b9050919050565b60008190508160005260206000209050919050565b60006020601f8301049050919050565b600082821b905092915050565b60006008830261322f7fffffffffffffffffffffffffffffffffffffffffffffffffffffffffffffffff826131f2565b61323986836131f2565b95508019841693508086168417925050509392505050565b6000819050919050565b600061327661327161326c84612a7d565b613251565b612a7d565b9050919050565b6000819050919050565b6132908361325b565b6132a461329c8261327d565b8484546131ff565b825550505050565b600090565b6132b96132ac565b6132c4818484613287565b505050565b5b818110156132e8576132dd6000826132b1565b6001810190506132ca565b5050565b601f82111561332d576132fe816131cd565b613307846131e2565b81016020851015613316578190505b61332a613322856131e2565b8301826132c9565b50505b505050565b600082821c905092915050565b600061335060001984600802613332565b1980831691505092915050565b6000613369838361333f565b9150826002028217905092915050565b613382826129cb565b67ffffffffffffffff81111561339b5761339a612bb2565b5b6133a58254613078565b6133b08282856132ec565b600060209050601f8311600181146133e357600084156133d1578287015190505b6133db858261335d565b865550613443565b601f1984166133f1866131cd565b60005b82811015613419578489015182556001820191506020850194506020810190506133f4565b868310156134365784890151613432601f89168261333f565b8355505b6001600288020188555050505b505050505050565b7f4552433732313a2063616c6c6572206973206e6f7420746f6b656e206f776e6560008201527f72206f7220617070726f76656400000000000000000000000000000000000000602082015250565b60006134a7602d836129d6565b91506134b28261344b565b604082019050919050565b600060208201905081810360008301526134d68161349a565b9050919050565b7f455243373231456e756d657261626c653a206f776e657220696e646578206f7560008201527f74206f6620626f756e6473000000000000000000000000000000000000000000602082015250565b6000613539602b836129d6565b9150613544826134dd565b604082019050919050565b600060208201905081810360008301526135688161352c565b9050919050565b7f455243373231456e756d657261626c653a20676c6f62616c20696e646578206f60008201527f7574206f6620626f756e64730000000000000000000000000000000000000000602082015250565b60006135cb602c836129d6565b91506135d68261356f565b604082019050919050565b600060208201905081810360008301526135fa816135be565b9050919050565b7f4e487b7100000000000000000000000000000000000000000000000000000000600052603260045260246000fd5b7f4552433732313a20696e76616c696420746f6b656e2049440000000000000000600082015250565b60006136666018836129d6565b915061367182613630565b602082019050919050565b6000602082019050818103600083015261369581613659565b9050919050565b7f4552433732313a2061646472657373207a65726f206973206e6f74206120766160008201527f6c6964206f776e65720000000000000000000000000000000000000000000000602082015250565b60006136f86029836129d6565b91506137038261369c565b604082019050919050565b60006020820190508181036000830152613727816136eb565b9050919050565b7f4f776e61626c653a206e6577206f776e657220697320746865207a65726f206160008201527f6464726573730000000000000000000000000000000000000000000000000000602082015250565b600061378a6026836129d6565b91506137958261372e565b604082019050919050565b600060208201905081810360008301526137b98161377d565b9050919050565b7f4f776e61626c653a2063616c6c6572206973206e6f7420746865206f776e6572600082015250565b60006137f66020836129d6565b9150613801826137c0565b602082019050919050565b60006020820190508181036000830152613825816137e9565b9050919050565b7f45524337323155524953746f726167653a2055524920736574206f66206e6f6e60008201527f6578697374656e7420746f6b656e000000000000000000000000000000000000602082015250565b6000613888602e836129d6565b91506138938261382c565b604082019050919050565b600060208201905081810360008301526138b78161387b565b9050919050565b7f4552433732313a207472616e736665722066726f6d20696e636f72726563742060008201527f6f776e6572000000000000000000000000000000000000000000000000000000602082015250565b600061391a6025836129d6565b9150613925826138be565b604082019050919050565b600060208201905081810360008301526139498161390d565b9050919050565b7f4552433732313a207472616e7366657220746f20746865207a65726f2061646460008201527f7265737300000000000000000000000000000000000000000000000000000000602082015250565b60006139ac6024836129d6565b91506139b782613950565b604082019050919050565b600060208201905081810360008301526139db8161399f565b9050919050565b7f4552433732313a20617070726f766520746f2063616c6c657200000000000000600082015250565b6000613a186019836129d6565b9150613a23826139e2565b602082019050919050565b60006020820190508181036000830152613a4781613a0b565b9050919050565b7f4552433732313a207472616e7366657220746f206e6f6e20455243373231526560008201527f63656976657220696d706c656d656e7465720000000000000000000000000000602082015250565b6000613aaa6032836129d6565b9150613ab582613a4e565b604082019050919050565b60006020820190508181036000830152613ad981613a9d565b9050919050565b600081905092915050565b6000613af6826129cb565b613b008185613ae0565b9350613b108185602086016129e7565b80840191505092915050565b6000613b288285613aeb565b9150613b348284613aeb565b91508190509392505050565b7f546f6b656e206e6f74207472616e7366657261626c6500000000000000000000600082015250565b6000613b766016836129d6565b9150613b8182613b40565b602082019050919050565b60006020820190508181036000830152613ba581613b69565b9050919050565b600081519050919050565b600082825260208201905092915050565b6000613bd382613bac565b613bdd8185613bb7565b9350613bed8185602086016129e7565b613bf681612a11565b840191505092915050565b6000608082019050613c166000830187612b12565b613c236020830186612b12565b613c306040830185612d98565b8181036060830152613c428184613bc8565b905095945050505050565b600081519050613c5c8161293c565b92915050565b600060208284031215613c7857613c77612906565b5b6000613c8684828501613c4d565b91505092915050565b7f4552433732313a206d696e7420746f20746865207a65726f2061646472657373600082015250565b6000613cc56020836129d6565b9150613cd082613c8f565b602082019050919050565b60006020820190508181036000830152613cf481613cb8565b9050919050565b7f4552433732313a20746f6b656e20616c7265616479206d696e74656400000000600082015250565b6000613d31601c836129d6565b9150613d3c82613cfb565b602082019050919050565b60006020820190508181036000830152613d6081613d24565b9050919050565b7f455243373231456e756d657261626c653a20636f6e736563757469766520747260008201527f616e7366657273206e6f7420737570706f727465640000000000000000000000602082015250565b6000613dc36035836129d6565b9150613dce82613d67565b604082019050919050565b60006020820190508181036000830152613df281613db6565b9050919050565b7f4e487b7100000000000000000000000000000000000000000000000000000000600052601260045260246000fd5b7f4e487b7100000000000000000000000000000000000000000000000000000000600052601160045260246000fd5b6000613e6282612a7d565b9150613e6d83612a7d565b9250828203905081811115613e8557613e84613e28565b5b92915050565b7f4e487b7100000000000000000000000000000000000000000000000000000000600052603160045260246000fdfea264697066735822122056259a02cc9855202ba980e6995058957bf674b015866a9af5711f81440dbd6864736f6c63430008130033",
  "immutableReferences": {},
  "source": "// SPDX-License-Identifier: GPL-3.0\npragma solidity ^0.8.10;\nimport \"../node_modules/@openzeppelin/contracts/token/ERC721/ERC721.sol\";\nimport \"../node_modules/@openzeppelin/contracts/token/ERC721/extensions/ERC721URIStorage.sol\";\nimport \"../node_modules/@openzeppelin/contracts/token/ERC721/extensions/ERC721Burnable.sol\";\nimport \"../node_modules/@openzeppelin/contracts/utils/Counters.sol\";\nimport \"../node_modules/@openzeppelin/contracts/access/Ownable.sol\";\nimport \"../node_modules/@openzeppelin/contracts/token/ERC721/extensions/ERC721Enumerable.sol\";\nimport \"../node_modules/@openzeppelin/contracts/token/ERC5192/IERC5192.sol\";\n\n\ncontract mintSBT is ERC721, Ownable, ERC721Burnable, ERC721Enumerable, ERC721URIStorage, IERC5192{\n    using Counters for Counters.Counter;\n    Counters.Counter private _tokenIds;\n\n    constructor() ERC721(\"Soulbound2\", \"SBT2\") {}\n\n    struct User{\n        string UserName;\n        string UserInformation;\n    }\n    mapping(uint256 => User) public user;\n\n     function mintSBT2(string memory _tokenURI, address account, string memory _userName, string memory _userInformation) public onlyOwner returns(uint256){\n        uint256 newTokenId = _tokenIds.current();\n        _safeMint(account, newTokenId);\n        _setTokenURI(newTokenId, _tokenURI);\n      \n        user[newTokenId] = User(_userName, _userInformation);\n\n        _tokenIds.increment();\n        return newTokenId;\n    }\n\n    mapping(uint256 => bool) private _isLock;\n\n    function locked(uint256 tokenId) external override view returns(bool){\n        return _isLock[tokenId];\n    }\n\n    function lockToken(uint256 tokenId) public{\n        _isLock[tokenId] = true;\n        emit Locked(tokenId);\n    }\n\n    function unlockToken(uint256 tokenId) private{\n        _isLock[tokenId] = false;\n        emit Unlocked(tokenId);\n     }\n\n     function supportsInterface(bytes4 interfaceId) public view virtual override(ERC721, ERC721Enumerable) returns (bool) {\n        return super.supportsInterface(interfaceId);\n    }\n\n    function _beforeTokenTransfer(address from, address to, uint256 tokenId, uint256 batchSize)internal override(ERC721, ERC721Enumerable)\n    {\n        require(from == address(0), \"Token not transferable\");\n        super._beforeTokenTransfer(from, to, tokenId, batchSize);\n    }\n\n    // function safeMint(address to) public onlyOwner(\n    //     uint256 tokenId = _tokenIds.current();\n    //     _tokenIds.increment();\n    //     _safeMint(to, tokenId);\n    // )\n\n    function _burn(uint256 tokenId) internal override(ERC721, ERC721URIStorage){\n        unlockToken(tokenId);\n        super._burn(tokenId);\n    }\n\n    function tokenURI(uint256 tokenId) public view override(ERC721, ERC721URIStorage) returns (string memory) {\n        return super.tokenURI(tokenId);\n    }\n\n    function showTokenId() public view returns (uint256){\n        return _tokenIds.current();\n    }\n\n\n}",
  "sourcePath": "/Users/choejasil/BCpofolnet/truffle/contracts/SBT.sol",
  "compiler": {
    "name": "solc",
    "version": "0.8.19+commit.7dd6d404.Emscripten.clang"
  },
  "schemaVersion": "3.4.13",
  "updatedAt": "2023-05-19T10:22:39.848Z",
  "devdoc": {
    "events": {
      "Approval(address,address,uint256)": {
        "details": "Emitted when `owner` enables `approved` to manage the `tokenId` token."
      },
      "ApprovalForAll(address,address,bool)": {
        "details": "Emitted when `owner` enables or disables (`approved`) `operator` to manage all of its assets."
      },
      "Locked(uint256)": {
        "details": "If a token is minted and the status is locked, this event should be emitted.",
        "params": {
          "tokenId": "The identifier for a token."
        }
      },
      "Transfer(address,address,uint256)": {
        "details": "Emitted when `tokenId` token is transferred from `from` to `to`."
      },
      "Unlocked(uint256)": {
        "details": "If a token is minted and the status is unlocked, this event should be emitted.",
        "params": {
          "tokenId": "The identifier for a token."
        }
      }
    },
    "kind": "dev",
    "methods": {
      "approve(address,uint256)": {
        "details": "See {IERC721-approve}."
      },
      "balanceOf(address)": {
        "details": "See {IERC721-balanceOf}."
      },
      "burn(uint256)": {
        "details": "Burns `tokenId`. See {ERC721-_burn}. Requirements: - The caller must own `tokenId` or be an approved operator."
      },
      "getApproved(uint256)": {
        "details": "See {IERC721-getApproved}."
      },
      "isApprovedForAll(address,address)": {
        "details": "See {IERC721-isApprovedForAll}."
      },
      "locked(uint256)": {
        "details": "SBTs assigned to zero address are considered invalid, and queries about them do throw.",
        "params": {
          "tokenId": "The identifier for an SBT."
        }
      },
      "name()": {
        "details": "See {IERC721Metadata-name}."
      },
      "owner()": {
        "details": "Returns the address of the current owner."
      },
      "ownerOf(uint256)": {
        "details": "See {IERC721-ownerOf}."
      },
      "renounceOwnership()": {
        "details": "Leaves the contract without owner. It will not be possible to call `onlyOwner` functions anymore. Can only be called by the current owner. NOTE: Renouncing ownership will leave the contract without an owner, thereby removing any functionality that is only available to the owner."
      },
      "safeTransferFrom(address,address,uint256)": {
        "details": "See {IERC721-safeTransferFrom}."
      },
      "safeTransferFrom(address,address,uint256,bytes)": {
        "details": "See {IERC721-safeTransferFrom}."
      },
      "setApprovalForAll(address,bool)": {
        "details": "See {IERC721-setApprovalForAll}."
      },
      "symbol()": {
        "details": "See {IERC721Metadata-symbol}."
      },
      "tokenByIndex(uint256)": {
        "details": "See {IERC721Enumerable-tokenByIndex}."
      },
      "tokenOfOwnerByIndex(address,uint256)": {
        "details": "See {IERC721Enumerable-tokenOfOwnerByIndex}."
      },
      "totalSupply()": {
        "details": "See {IERC721Enumerable-totalSupply}."
      },
      "transferFrom(address,address,uint256)": {
        "details": "See {IERC721-transferFrom}."
      },
      "transferOwnership(address)": {
        "details": "Transfers ownership of the contract to a new account (`newOwner`). Can only be called by the current owner."
      }
    },
    "version": 1
  },
  "userdoc": {
    "events": {
      "Locked(uint256)": {
        "notice": "Emitted when the locking status is changed to locked."
      },
      "Unlocked(uint256)": {
        "notice": "Emitted when the locking status is changed to unlocked."
      }
    },
    "kind": "user",
    "methods": {
      "locked(uint256)": {
        "notice": "Returns the locking status of an Soulbound Token"
      }
    },
    "version": 1
  }
}