{
  "contractName": "SBT",
  "abi": [
    {
      "inputs": [],
      "stateMutability": "nonpayable",
      "type": "constructor"
    },
    {
      "anonymous": false,
      "inputs": [
        {
          "indexed": true,
          "internalType": "address",
          "name": "owner",
          "type": "address"
        },
        {
          "indexed": true,
          "internalType": "address",
          "name": "approved",
          "type": "address"
        },
        {
          "indexed": true,
          "internalType": "uint256",
          "name": "tokenId",
          "type": "uint256"
        }
      ],
      "name": "Approval",
      "type": "event"
    },
    {
      "anonymous": false,
      "inputs": [
        {
          "indexed": true,
          "internalType": "address",
          "name": "owner",
          "type": "address"
        },
        {
          "indexed": true,
          "internalType": "address",
          "name": "operator",
          "type": "address"
        },
        {
          "indexed": false,
          "internalType": "bool",
          "name": "approved",
          "type": "bool"
        }
      ],
      "name": "ApprovalForAll",
      "type": "event"
    },
    {
      "anonymous": false,
      "inputs": [
        {
          "indexed": false,
          "internalType": "uint256",
          "name": "tokenId",
          "type": "uint256"
        }
      ],
      "name": "Locked",
      "type": "event"
    },
    {
      "anonymous": false,
      "inputs": [
        {
          "indexed": true,
          "internalType": "address",
          "name": "previousOwner",
          "type": "address"
        },
        {
          "indexed": true,
          "internalType": "address",
          "name": "newOwner",
          "type": "address"
        }
      ],
      "name": "OwnershipTransferred",
      "type": "event"
    },
    {
      "anonymous": false,
      "inputs": [
        {
          "indexed": true,
          "internalType": "address",
          "name": "from",
          "type": "address"
        },
        {
          "indexed": true,
          "internalType": "address",
          "name": "to",
          "type": "address"
        },
        {
          "indexed": true,
          "internalType": "uint256",
          "name": "tokenId",
          "type": "uint256"
        }
      ],
      "name": "Transfer",
      "type": "event"
    },
    {
      "anonymous": false,
      "inputs": [
        {
          "indexed": false,
          "internalType": "uint256",
          "name": "tokenId",
          "type": "uint256"
        }
      ],
      "name": "Unlocked",
      "type": "event"
    },
    {
      "inputs": [
        {
          "internalType": "address",
          "name": "to",
          "type": "address"
        },
        {
          "internalType": "uint256",
          "name": "tokenId",
          "type": "uint256"
        }
      ],
      "name": "approve",
      "outputs": [],
      "stateMutability": "nonpayable",
      "type": "function"
    },
    {
      "inputs": [
        {
          "internalType": "address",
          "name": "owner",
          "type": "address"
        }
      ],
      "name": "balanceOf",
      "outputs": [
        {
          "internalType": "uint256",
          "name": "",
          "type": "uint256"
        }
      ],
      "stateMutability": "view",
      "type": "function",
      "constant": true
    },
    {
      "inputs": [
        {
          "internalType": "uint256",
          "name": "tokenId",
          "type": "uint256"
        }
      ],
      "name": "burn",
      "outputs": [],
      "stateMutability": "nonpayable",
      "type": "function"
    },
    {
      "inputs": [
        {
          "internalType": "uint256",
          "name": "tokenId",
          "type": "uint256"
        }
      ],
      "name": "getApproved",
      "outputs": [
        {
          "internalType": "address",
          "name": "",
          "type": "address"
        }
      ],
      "stateMutability": "view",
      "type": "function",
      "constant": true
    },
    {
      "inputs": [
        {
          "internalType": "address",
          "name": "owner",
          "type": "address"
        },
        {
          "internalType": "address",
          "name": "operator",
          "type": "address"
        }
      ],
      "name": "isApprovedForAll",
      "outputs": [
        {
          "internalType": "bool",
          "name": "",
          "type": "bool"
        }
      ],
      "stateMutability": "view",
      "type": "function",
      "constant": true
    },
    {
      "inputs": [],
      "name": "name",
      "outputs": [
        {
          "internalType": "string",
          "name": "",
          "type": "string"
        }
      ],
      "stateMutability": "view",
      "type": "function",
      "constant": true
    },
    {
      "inputs": [],
      "name": "owner",
      "outputs": [
        {
          "internalType": "address",
          "name": "",
          "type": "address"
        }
      ],
      "stateMutability": "view",
      "type": "function",
      "constant": true
    },
    {
      "inputs": [
        {
          "internalType": "uint256",
          "name": "tokenId",
          "type": "uint256"
        }
      ],
      "name": "ownerOf",
      "outputs": [
        {
          "internalType": "address",
          "name": "",
          "type": "address"
        }
      ],
      "stateMutability": "view",
      "type": "function",
      "constant": true
    },
    {
      "inputs": [],
      "name": "renounceOwnership",
      "outputs": [],
      "stateMutability": "nonpayable",
      "type": "function"
    },
    {
      "inputs": [
        {
          "internalType": "address",
          "name": "from",
          "type": "address"
        },
        {
          "internalType": "address",
          "name": "to",
          "type": "address"
        },
        {
          "internalType": "uint256",
          "name": "tokenId",
          "type": "uint256"
        }
      ],
      "name": "safeTransferFrom",
      "outputs": [],
      "stateMutability": "nonpayable",
      "type": "function"
    },
    {
      "inputs": [
        {
          "internalType": "address",
          "name": "from",
          "type": "address"
        },
        {
          "internalType": "address",
          "name": "to",
          "type": "address"
        },
        {
          "internalType": "uint256",
          "name": "tokenId",
          "type": "uint256"
        },
        {
          "internalType": "bytes",
          "name": "data",
          "type": "bytes"
        }
      ],
      "name": "safeTransferFrom",
      "outputs": [],
      "stateMutability": "nonpayable",
      "type": "function"
    },
    {
      "inputs": [
        {
          "internalType": "address",
          "name": "operator",
          "type": "address"
        },
        {
          "internalType": "bool",
          "name": "approved",
          "type": "bool"
        }
      ],
      "name": "setApprovalForAll",
      "outputs": [],
      "stateMutability": "nonpayable",
      "type": "function"
    },
    {
      "inputs": [],
      "name": "symbol",
      "outputs": [
        {
          "internalType": "string",
          "name": "",
          "type": "string"
        }
      ],
      "stateMutability": "view",
      "type": "function",
      "constant": true
    },
    {
      "inputs": [
        {
          "internalType": "uint256",
          "name": "index",
          "type": "uint256"
        }
      ],
      "name": "tokenByIndex",
      "outputs": [
        {
          "internalType": "uint256",
          "name": "",
          "type": "uint256"
        }
      ],
      "stateMutability": "view",
      "type": "function",
      "constant": true
    },
    {
      "inputs": [
        {
          "internalType": "address",
          "name": "owner",
          "type": "address"
        },
        {
          "internalType": "uint256",
          "name": "index",
          "type": "uint256"
        }
      ],
      "name": "tokenOfOwnerByIndex",
      "outputs": [
        {
          "internalType": "uint256",
          "name": "",
          "type": "uint256"
        }
      ],
      "stateMutability": "view",
      "type": "function",
      "constant": true
    },
    {
      "inputs": [],
      "name": "totalSupply",
      "outputs": [
        {
          "internalType": "uint256",
          "name": "",
          "type": "uint256"
        }
      ],
      "stateMutability": "view",
      "type": "function",
      "constant": true
    },
    {
      "inputs": [
        {
          "internalType": "address",
          "name": "from",
          "type": "address"
        },
        {
          "internalType": "address",
          "name": "to",
          "type": "address"
        },
        {
          "internalType": "uint256",
          "name": "tokenId",
          "type": "uint256"
        }
      ],
      "name": "transferFrom",
      "outputs": [],
      "stateMutability": "nonpayable",
      "type": "function"
    },
    {
      "inputs": [
        {
          "internalType": "address",
          "name": "newOwner",
          "type": "address"
        }
      ],
      "name": "transferOwnership",
      "outputs": [],
      "stateMutability": "nonpayable",
      "type": "function"
    },
    {
      "inputs": [
        {
          "internalType": "uint256",
          "name": "",
          "type": "uint256"
        }
      ],
      "name": "user",
      "outputs": [
        {
          "internalType": "string",
          "name": "UserName",
          "type": "string"
        },
        {
          "internalType": "string",
          "name": "UserInformation",
          "type": "string"
        }
      ],
      "stateMutability": "view",
      "type": "function",
      "constant": true
    },
    {
      "inputs": [
        {
          "internalType": "string",
          "name": "tokenURI",
          "type": "string"
        },
        {
          "internalType": "address",
          "name": "account",
          "type": "address"
        },
        {
          "internalType": "string",
          "name": "_userName",
          "type": "string"
        },
        {
          "internalType": "string",
          "name": "_userInformation",
          "type": "string"
        }
      ],
      "name": "mintSBT2",
      "outputs": [
        {
          "internalType": "uint256",
          "name": "",
          "type": "uint256"
        }
      ],
      "stateMutability": "nonpayable",
      "type": "function"
    },
    {
      "inputs": [
        {
          "internalType": "uint256",
          "name": "tokenId",
          "type": "uint256"
        }
      ],
      "name": "locked",
      "outputs": [
        {
          "internalType": "bool",
          "name": "",
          "type": "bool"
        }
      ],
      "stateMutability": "view",
      "type": "function",
      "constant": true
    },
    {
      "inputs": [
        {
          "internalType": "uint256",
          "name": "tokenId",
          "type": "uint256"
        }
      ],
      "name": "lockToken",
      "outputs": [],
      "stateMutability": "nonpayable",
      "type": "function"
    },
    {
      "inputs": [
        {
          "internalType": "bytes4",
          "name": "interfaceId",
          "type": "bytes4"
        }
      ],
      "name": "supportsInterface",
      "outputs": [
        {
          "internalType": "bool",
          "name": "",
          "type": "bool"
        }
      ],
      "stateMutability": "view",
      "type": "function",
      "constant": true
    },
    {
      "inputs": [
        {
          "internalType": "uint256",
          "name": "tokenId",
          "type": "uint256"
        }
      ],
      "name": "tokenURI",
      "outputs": [
        {
          "internalType": "string",
          "name": "",
          "type": "string"
        }
      ],
      "stateMutability": "view",
      "type": "function",
      "constant": true
    },
    {
      "inputs": [
        {
          "internalType": "uint256",
          "name": "tokenId",
          "type": "uint256"
        }
      ],
      "name": "getUserName",
      "outputs": [
        {
          "internalType": "string",
          "name": "",
          "type": "string"
        }
      ],
      "stateMutability": "view",
      "type": "function",
      "constant": true
    },
    {
      "inputs": [
        {
          "internalType": "uint256",
          "name": "tokenId",
          "type": "uint256"
        }
      ],
      "name": "getUserInformation",
      "outputs": [
        {
          "internalType": "string",
          "name": "",
          "type": "string"
        }
      ],
      "stateMutability": "view",
      "type": "function",
      "constant": true
    },
    {
      "inputs": [],
      "name": "showTokenId",
      "outputs": [
        {
          "internalType": "uint256",
          "name": "",
          "type": "uint256"
        }
      ],
      "stateMutability": "view",
      "type": "function",
      "constant": true
    }
  ],
  "bytecode": "0x60806040523480156200001157600080fd5b506040518060400160405280600a81526020017f536f756c626f756e6432000000000000000000000000000000000000000000008152506040518060400160405280600481526020017f534254320000000000000000000000000000000000000000000000000000000081525081600090816200008f919062000412565b508060019081620000a1919062000412565b505050620000c4620000b8620000ca60201b60201c565b620000d260201b60201c565b620004f9565b600033905090565b6000600660009054906101000a900473ffffffffffffffffffffffffffffffffffffffff16905081600660006101000a81548173ffffffffffffffffffffffffffffffffffffffff021916908373ffffffffffffffffffffffffffffffffffffffff1602179055508173ffffffffffffffffffffffffffffffffffffffff168173ffffffffffffffffffffffffffffffffffffffff167f8be0079c531659141344cd1fd0a4f28419497f9722a3daafe3b4186f6b6457e060405160405180910390a35050565b600081519050919050565b7f4e487b7100000000000000000000000000000000000000000000000000000000600052604160045260246000fd5b7f4e487b7100000000000000000000000000000000000000000000000000000000600052602260045260246000fd5b600060028204905060018216806200021a57607f821691505b60208210810362000230576200022f620001d2565b5b50919050565b60008190508160005260206000209050919050565b60006020601f8301049050919050565b600082821b905092915050565b6000600883026200029a7fffffffffffffffffffffffffffffffffffffffffffffffffffffffffffffffff826200025b565b620002a686836200025b565b95508019841693508086168417925050509392505050565b6000819050919050565b6000819050919050565b6000620002f3620002ed620002e784620002be565b620002c8565b620002be565b9050919050565b6000819050919050565b6200030f83620002d2565b620003276200031e82620002fa565b84845462000268565b825550505050565b600090565b6200033e6200032f565b6200034b81848462000304565b505050565b5b8181101562000373576200036760008262000334565b60018101905062000351565b5050565b601f821115620003c2576200038c8162000236565b62000397846200024b565b81016020851015620003a7578190505b620003bf620003b6856200024b565b83018262000350565b50505b505050565b600082821c905092915050565b6000620003e760001984600802620003c7565b1980831691505092915050565b6000620004028383620003d4565b9150826002028217905092915050565b6200041d8262000198565b67ffffffffffffffff811115620004395762000438620001a3565b5b62000445825462000201565b6200045282828562000377565b600060209050601f8311600181146200048a576000841562000475578287015190505b620004818582620003f4565b865550620004f1565b601f1984166200049a8662000236565b60005b82811015620004c4578489015182556001820191506020850194506020810190506200049d565b86831015620004e45784890151620004e0601f891682620003d4565b8355505b6001600288020188555050505b505050505050565b6140d680620005096000396000f3fe608060405234801561001057600080fd5b50600436106101a95760003560e01c80636352211e116100f9578063a22cb46511610097578063c87b56dd11610071578063c87b56dd14610505578063ca56bb0614610535578063e985e9c514610553578063f2fde38b14610583576101a9565b8063a22cb4651461049d578063b45a3c0e146104b9578063b88d4fde146104e9576101a9565b806380f20363116100d357806380f20363146104155780638da5cb5b1461043157806395d89b411461044f578063988da80f1461046d576101a9565b80636352211e146103ab57806370a08231146103db578063715018a61461040b576101a9565b806323b872dd1161016657806342966c681161014057806342966c68146102fe5780634c7def7b1461031a5780634f6ccce71461034a578063553275be1461037a576101a9565b806323b872dd146102965780632f745c59146102b257806342842e0e146102e2576101a9565b806301ffc9a7146101ae57806306fdde03146101de578063081812fc146101fc578063095ea7b31461022c57806311120d8e1461024857806318160ddd14610278575b600080fd5b6101c860048036038101906101c39190612b4e565b61059f565b6040516101d59190612b96565b60405180910390f35b6101e66105b1565b6040516101f39190612c41565b60405180910390f35b61021660048036038101906102119190612c99565b610643565b6040516102239190612d07565b60405180910390f35b61024660048036038101906102419190612d4e565b610689565b005b610262600480360381019061025d9190612ec3565b6107a0565b60405161026f9190612f8d565b60405180910390f35b610280610839565b60405161028d9190612f8d565b60405180910390f35b6102b060048036038101906102ab9190612fa8565b610846565b005b6102cc60048036038101906102c79190612d4e565b6108a6565b6040516102d99190612f8d565b60405180910390f35b6102fc60048036038101906102f79190612fa8565b61094b565b005b61031860048036038101906103139190612c99565b61096b565b005b610334600480360381019061032f9190612c99565b6109c7565b6040516103419190612c41565b60405180910390f35b610364600480360381019061035f9190612c99565b610a6f565b6040516103719190612f8d565b60405180910390f35b610394600480360381019061038f9190612c99565b610ae0565b6040516103a2929190612ffb565b60405180910390f35b6103c560048036038101906103c09190612c99565b610c14565b6040516103d29190612d07565b60405180910390f35b6103f560048036038101906103f09190613032565b610c9a565b6040516104029190612f8d565b60405180910390f35b610413610d51565b005b61042f600480360381019061042a9190612c99565b610d65565b005b610439610dcb565b6040516104469190612d07565b60405180910390f35b610457610df5565b6040516104649190612c41565b60405180910390f35b61048760048036038101906104829190612c99565b610e87565b6040516104949190612c41565b60405180910390f35b6104b760048036038101906104b2919061308b565b610f2f565b005b6104d360048036038101906104ce9190612c99565b610f45565b6040516104e09190612b96565b60405180910390f35b61050360048036038101906104fe919061316c565b610f6f565b005b61051f600480360381019061051a9190612c99565b610fd1565b60405161052c9190612c41565b60405180910390f35b61053d610fe3565b60405161054a9190612f8d565b60405180910390f35b61056d600480360381019061056891906131ef565b610ff4565b60405161057a9190612b96565b60405180910390f35b61059d60048036038101906105989190613032565b611088565b005b60006105aa8261110b565b9050919050565b6060600080546105c09061325e565b80601f01602080910402602001604051908101604052809291908181526020018280546105ec9061325e565b80156106395780601f1061060e57610100808354040283529160200191610639565b820191906000526020600020905b81548152906001019060200180831161061c57829003601f168201915b5050505050905090565b600061064e82611185565b6004600083815260200190815260200160002060009054906101000a900473ffffffffffffffffffffffffffffffffffffffff169050919050565b600061069482610c14565b90508073ffffffffffffffffffffffffffffffffffffffff168373ffffffffffffffffffffffffffffffffffffffff1603610704576040517f08c379a00000000000000000000000000000000000000000000000000000000081526004016106fb90613301565b60405180910390fd5b8073ffffffffffffffffffffffffffffffffffffffff166107236111d0565b73ffffffffffffffffffffffffffffffffffffffff16148061075257506107518161074c6111d0565b610ff4565b5b610791576040517f08c379a000000000000000000000000000000000000000000000000000000000815260040161078890613393565b60405180910390fd5b61079b83836111d8565b505050565b60006107aa611291565b60006107b6600c61130f565b90506107c2858261131d565b6107cc818761133b565b604051806040016040528085815260200184815250600d60008381526020019081526020016000206000820151816000019081610809919061355f565b50602082015181600101908161081f919061355f565b5090505061082d600c6113a8565b80915050949350505050565b6000600980549050905090565b6108576108516111d0565b826113be565b610896576040517f08c379a000000000000000000000000000000000000000000000000000000000815260040161088d906136a3565b60405180910390fd5b6108a1838383611453565b505050565b60006108b183610c9a565b82106108f2576040517f08c379a00000000000000000000000000000000000000000000000000000000081526004016108e990613735565b60405180910390fd5b600760008473ffffffffffffffffffffffffffffffffffffffff1673ffffffffffffffffffffffffffffffffffffffff168152602001908152602001600020600083815260200190815260200160002054905092915050565b61096683838360405180602001604052806000815250610f6f565b505050565b61097c6109766111d0565b826113be565b6109bb576040517f08c379a00000000000000000000000000000000000000000000000000000000081526004016109b2906136a3565b60405180910390fd5b6109c48161174c565b50565b6060600d600083815260200190815260200160002060010180546109ea9061325e565b80601f0160208091040260200160405190810160405280929190818152602001828054610a169061325e565b8015610a635780601f10610a3857610100808354040283529160200191610a63565b820191906000526020600020905b815481529060010190602001808311610a4657829003601f168201915b50505050509050919050565b6000610a79610839565b8210610aba576040517f08c379a0000000000000000000000000000000000000000000000000000000008152600401610ab1906137c7565b60405180910390fd5b60098281548110610ace57610acd6137e7565b5b90600052602060002001549050919050565b600d602052806000526040600020600091509050806000018054610b039061325e565b80601f0160208091040260200160405190810160405280929190818152602001828054610b2f9061325e565b8015610b7c5780601f10610b5157610100808354040283529160200191610b7c565b820191906000526020600020905b815481529060010190602001808311610b5f57829003601f168201915b505050505090806001018054610b919061325e565b80601f0160208091040260200160405190810160405280929190818152602001828054610bbd9061325e565b8015610c0a5780601f10610bdf57610100808354040283529160200191610c0a565b820191906000526020600020905b815481529060010190602001808311610bed57829003601f168201915b5050505050905082565b600080610c2083611761565b9050600073ffffffffffffffffffffffffffffffffffffffff168173ffffffffffffffffffffffffffffffffffffffff1603610c91576040517f08c379a0000000000000000000000000000000000000000000000000000000008152600401610c8890613862565b60405180910390fd5b80915050919050565b60008073ffffffffffffffffffffffffffffffffffffffff168273ffffffffffffffffffffffffffffffffffffffff1603610d0a576040517f08c379a0000000000000000000000000000000000000000000000000000000008152600401610d01906138f4565b60405180910390fd5b600360008373ffffffffffffffffffffffffffffffffffffffff1673ffffffffffffffffffffffffffffffffffffffff168152602001908152602001600020549050919050565b610d59611291565b610d63600061179e565b565b6001600e600083815260200190815260200160002060006101000a81548160ff0219169083151502179055507f032bc66be43dbccb7487781d168eb7bda224628a3b2c3388bdf69b532a3a161181604051610dc09190612f8d565b60405180910390a150565b6000600660009054906101000a900473ffffffffffffffffffffffffffffffffffffffff16905090565b606060018054610e049061325e565b80601f0160208091040260200160405190810160405280929190818152602001828054610e309061325e565b8015610e7d5780601f10610e5257610100808354040283529160200191610e7d565b820191906000526020600020905b815481529060010190602001808311610e6057829003601f168201915b5050505050905090565b6060600d60008381526020019081526020016000206000018054610eaa9061325e565b80601f0160208091040260200160405190810160405280929190818152602001828054610ed69061325e565b8015610f235780601f10610ef857610100808354040283529160200191610f23565b820191906000526020600020905b815481529060010190602001808311610f0657829003601f168201915b50505050509050919050565b610f41610f3a6111d0565b8383611864565b5050565b6000600e600083815260200190815260200160002060009054906101000a900460ff169050919050565b610f80610f7a6111d0565b836113be565b610fbf576040517f08c379a0000000000000000000000000000000000000000000000000000000008152600401610fb6906136a3565b60405180910390fd5b610fcb848484846119d0565b50505050565b6060610fdc82611a2c565b9050919050565b6000610fef600c61130f565b905090565b6000600560008473ffffffffffffffffffffffffffffffffffffffff1673ffffffffffffffffffffffffffffffffffffffff16815260200190815260200160002060008373ffffffffffffffffffffffffffffffffffffffff1673ffffffffffffffffffffffffffffffffffffffff16815260200190815260200160002060009054906101000a900460ff16905092915050565b611090611291565b600073ffffffffffffffffffffffffffffffffffffffff168173ffffffffffffffffffffffffffffffffffffffff16036110ff576040517f08c379a00000000000000000000000000000000000000000000000000000000081526004016110f690613986565b60405180910390fd5b6111088161179e565b50565b60007f780e9d63000000000000000000000000000000000000000000000000000000007bffffffffffffffffffffffffffffffffffffffffffffffffffffffff1916827bffffffffffffffffffffffffffffffffffffffffffffffffffffffff1916148061117e575061117d82611b3e565b5b9050919050565b61118e81611c20565b6111cd576040517f08c379a00000000000000000000000000000000000000000000000000000000081526004016111c490613862565b60405180910390fd5b50565b600033905090565b816004600083815260200190815260200160002060006101000a81548173ffffffffffffffffffffffffffffffffffffffff021916908373ffffffffffffffffffffffffffffffffffffffff160217905550808273ffffffffffffffffffffffffffffffffffffffff1661124b83610c14565b73ffffffffffffffffffffffffffffffffffffffff167f8c5be1e5ebec7d5bd14f71427d1e84f3dd0314c0f7b2291e5b200ac8c7c3b92560405160405180910390a45050565b6112996111d0565b73ffffffffffffffffffffffffffffffffffffffff166112b7610dcb565b73ffffffffffffffffffffffffffffffffffffffff161461130d576040517f08c379a0000000000000000000000000000000000000000000000000000000008152600401611304906139f2565b60405180910390fd5b565b600081600001549050919050565b611337828260405180602001604052806000815250611c61565b5050565b61134482611c20565b611383576040517f08c379a000000000000000000000000000000000000000000000000000000000815260040161137a90613a84565b60405180910390fd5b80600b600084815260200190815260200160002090816113a3919061355f565b505050565b6001816000016000828254019250508190555050565b6000806113ca83610c14565b90508073ffffffffffffffffffffffffffffffffffffffff168473ffffffffffffffffffffffffffffffffffffffff16148061140c575061140b8185610ff4565b5b8061144a57508373ffffffffffffffffffffffffffffffffffffffff1661143284610643565b73ffffffffffffffffffffffffffffffffffffffff16145b91505092915050565b8273ffffffffffffffffffffffffffffffffffffffff1661147382610c14565b73ffffffffffffffffffffffffffffffffffffffff16146114c9576040517f08c379a00000000000000000000000000000000000000000000000000000000081526004016114c090613b16565b60405180910390fd5b600073ffffffffffffffffffffffffffffffffffffffff168273ffffffffffffffffffffffffffffffffffffffff1603611538576040517f08c379a000000000000000000000000000000000000000000000000000000000815260040161152f90613ba8565b60405180910390fd5b6115458383836001611cbc565b8273ffffffffffffffffffffffffffffffffffffffff1661156582610c14565b73ffffffffffffffffffffffffffffffffffffffff16146115bb576040517f08c379a00000000000000000000000000000000000000000000000000000000081526004016115b290613b16565b60405180910390fd5b6004600082815260200190815260200160002060006101000a81549073ffffffffffffffffffffffffffffffffffffffff02191690556001600360008573ffffffffffffffffffffffffffffffffffffffff1673ffffffffffffffffffffffffffffffffffffffff168152602001908152602001600020600082825403925050819055506001600360008473ffffffffffffffffffffffffffffffffffffffff1673ffffffffffffffffffffffffffffffffffffffff16815260200190815260200160002060008282540192505081905550816002600083815260200190815260200160002060006101000a81548173ffffffffffffffffffffffffffffffffffffffff021916908373ffffffffffffffffffffffffffffffffffffffff160217905550808273ffffffffffffffffffffffffffffffffffffffff168473ffffffffffffffffffffffffffffffffffffffff167fddf252ad1be2c89b69c2b068fc378daa952ba7f163c4a11628f55a4df523b3ef60405160405180910390a46117478383836001611d3d565b505050565b61175581611d43565b61175e81611da9565b50565b60006002600083815260200190815260200160002060009054906101000a900473ffffffffffffffffffffffffffffffffffffffff169050919050565b6000600660009054906101000a900473ffffffffffffffffffffffffffffffffffffffff16905081600660006101000a81548173ffffffffffffffffffffffffffffffffffffffff021916908373ffffffffffffffffffffffffffffffffffffffff1602179055508173ffffffffffffffffffffffffffffffffffffffff168173ffffffffffffffffffffffffffffffffffffffff167f8be0079c531659141344cd1fd0a4f28419497f9722a3daafe3b4186f6b6457e060405160405180910390a35050565b8173ffffffffffffffffffffffffffffffffffffffff168373ffffffffffffffffffffffffffffffffffffffff16036118d2576040517f08c379a00000000000000000000000000000000000000000000000000000000081526004016118c990613c14565b60405180910390fd5b80600560008573ffffffffffffffffffffffffffffffffffffffff1673ffffffffffffffffffffffffffffffffffffffff16815260200190815260200160002060008473ffffffffffffffffffffffffffffffffffffffff1673ffffffffffffffffffffffffffffffffffffffff16815260200190815260200160002060006101000a81548160ff0219169083151502179055508173ffffffffffffffffffffffffffffffffffffffff168373ffffffffffffffffffffffffffffffffffffffff167f17307eab39ab6107e8899845ad3d59bd9653f200f220920489ca2b5937696c31836040516119c39190612b96565b60405180910390a3505050565b6119db848484611453565b6119e784848484611dfc565b611a26576040517f08c379a0000000000000000000000000000000000000000000000000000000008152600401611a1d90613ca6565b60405180910390fd5b50505050565b6060611a3782611185565b6000600b60008481526020019081526020016000208054611a579061325e565b80601f0160208091040260200160405190810160405280929190818152602001828054611a839061325e565b8015611ad05780601f10611aa557610100808354040283529160200191611ad0565b820191906000526020600020905b815481529060010190602001808311611ab357829003601f168201915b505050505090506000611ae1611f83565b90506000815103611af6578192505050611b39565b600082511115611b2b578082604051602001611b13929190613d02565b60405160208183030381529060405292505050611b39565b611b3484611f9a565b925050505b919050565b60007f80ac58cd000000000000000000000000000000000000000000000000000000007bffffffffffffffffffffffffffffffffffffffffffffffffffffffff1916827bffffffffffffffffffffffffffffffffffffffffffffffffffffffff19161480611c0957507f5b5e139f000000000000000000000000000000000000000000000000000000007bffffffffffffffffffffffffffffffffffffffffffffffffffffffff1916827bffffffffffffffffffffffffffffffffffffffffffffffffffffffff1916145b80611c195750611c1882612002565b5b9050919050565b60008073ffffffffffffffffffffffffffffffffffffffff16611c4283611761565b73ffffffffffffffffffffffffffffffffffffffff1614159050919050565b611c6b838361206c565b611c786000848484611dfc565b611cb7576040517f08c379a0000000000000000000000000000000000000000000000000000000008152600401611cae90613ca6565b60405180910390fd5b505050565b600073ffffffffffffffffffffffffffffffffffffffff168473ffffffffffffffffffffffffffffffffffffffff1614611d2b576040517f08c379a0000000000000000000000000000000000000000000000000000000008152600401611d2290613d72565b60405180910390fd5b611d3784848484612289565b50505050565b50505050565b6000600e600083815260200190815260200160002060006101000a81548160ff0219169083151502179055507ff27b6ce5b2f5e68ddb2fd95a8a909d4ecf1daaac270935fff052feacb24f184281604051611d9e9190612f8d565b60405180910390a150565b611db2816123e7565b6000600b60008381526020019081526020016000208054611dd29061325e565b905014611df957600b60008281526020019081526020016000206000611df89190612a85565b5b50565b6000611e1d8473ffffffffffffffffffffffffffffffffffffffff16612535565b15611f76578373ffffffffffffffffffffffffffffffffffffffff1663150b7a02611e466111d0565b8786866040518563ffffffff1660e01b8152600401611e689493929190613de7565b6020604051808303816000875af1925050508015611ea457506040513d601f19601f82011682018060405250810190611ea19190613e48565b60015b611f26573d8060008114611ed4576040519150601f19603f3d011682016040523d82523d6000602084013e611ed9565b606091505b506000815103611f1e576040517f08c379a0000000000000000000000000000000000000000000000000000000008152600401611f1590613ca6565b60405180910390fd5b805181602001fd5b63150b7a0260e01b7bffffffffffffffffffffffffffffffffffffffffffffffffffffffff1916817bffffffffffffffffffffffffffffffffffffffffffffffffffffffff191614915050611f7b565b600190505b949350505050565b606060405180602001604052806000815250905090565b6060611fa582611185565b6000611faf611f83565b90506000815111611fcf5760405180602001604052806000815250611ffa565b80611fd984612558565b604051602001611fea929190613d02565b6040516020818303038152906040525b915050919050565b60007f01ffc9a7000000000000000000000000000000000000000000000000000000007bffffffffffffffffffffffffffffffffffffffffffffffffffffffff1916827bffffffffffffffffffffffffffffffffffffffffffffffffffffffff1916149050919050565b600073ffffffffffffffffffffffffffffffffffffffff168273ffffffffffffffffffffffffffffffffffffffff16036120db576040517f08c379a00000000000000000000000000000000000000000000000000000000081526004016120d290613ec1565b60405180910390fd5b6120e481611c20565b15612124576040517f08c379a000000000000000000000000000000000000000000000000000000000815260040161211b90613f2d565b60405180910390fd5b612132600083836001611cbc565b61213b81611c20565b1561217b576040517f08c379a000000000000000000000000000000000000000000000000000000000815260040161217290613f2d565b60405180910390fd5b6001600360008473ffffffffffffffffffffffffffffffffffffffff1673ffffffffffffffffffffffffffffffffffffffff16815260200190815260200160002060008282540192505081905550816002600083815260200190815260200160002060006101000a81548173ffffffffffffffffffffffffffffffffffffffff021916908373ffffffffffffffffffffffffffffffffffffffff160217905550808273ffffffffffffffffffffffffffffffffffffffff16600073ffffffffffffffffffffffffffffffffffffffff167fddf252ad1be2c89b69c2b068fc378daa952ba7f163c4a11628f55a4df523b3ef60405160405180910390a4612285600083836001611d3d565b5050565b61229584848484612626565b60018111156122d9576040517f08c379a00000000000000000000000000000000000000000000000000000000081526004016122d090613fbf565b60405180910390fd5b6000829050600073ffffffffffffffffffffffffffffffffffffffff168573ffffffffffffffffffffffffffffffffffffffff16036123205761231b8161262c565b61235f565b8373ffffffffffffffffffffffffffffffffffffffff168573ffffffffffffffffffffffffffffffffffffffff161461235e5761235d8582612675565b5b5b600073ffffffffffffffffffffffffffffffffffffffff168473ffffffffffffffffffffffffffffffffffffffff16036123a15761239c816127e2565b6123e0565b8473ffffffffffffffffffffffffffffffffffffffff168473ffffffffffffffffffffffffffffffffffffffff16146123df576123de84826128b3565b5b5b5050505050565b60006123f282610c14565b9050612402816000846001611cbc565b61240b82610c14565b90506004600083815260200190815260200160002060006101000a81549073ffffffffffffffffffffffffffffffffffffffff02191690556001600360008373ffffffffffffffffffffffffffffffffffffffff1673ffffffffffffffffffffffffffffffffffffffff168152602001908152602001600020600082825403925050819055506002600083815260200190815260200160002060006101000a81549073ffffffffffffffffffffffffffffffffffffffff021916905581600073ffffffffffffffffffffffffffffffffffffffff168273ffffffffffffffffffffffffffffffffffffffff167fddf252ad1be2c89b69c2b068fc378daa952ba7f163c4a11628f55a4df523b3ef60405160405180910390a4612531816000846001611d3d565b5050565b6000808273ffffffffffffffffffffffffffffffffffffffff163b119050919050565b60606000600161256784612932565b01905060008167ffffffffffffffff81111561258657612585612d98565b5b6040519080825280601f01601f1916602001820160405280156125b85781602001600182028036833780820191505090505b509050600082602001820190505b60011561261b578080600190039150507f3031323334353637383961626364656600000000000000000000000000000000600a86061a8153600a858161260f5761260e613fdf565b5b049450600085036125c6575b819350505050919050565b50505050565b600980549050600a600083815260200190815260200160002081905550600981908060018154018082558091505060019003906000526020600020016000909190919091505550565b6000600161268284610c9a565b61268c919061403d565b9050600060086000848152602001908152602001600020549050818114612771576000600760008673ffffffffffffffffffffffffffffffffffffffff1673ffffffffffffffffffffffffffffffffffffffff168152602001908152602001600020600084815260200190815260200160002054905080600760008773ffffffffffffffffffffffffffffffffffffffff1673ffffffffffffffffffffffffffffffffffffffff168152602001908152602001600020600084815260200190815260200160002081905550816008600083815260200190815260200160002081905550505b6008600084815260200190815260200160002060009055600760008573ffffffffffffffffffffffffffffffffffffffff1673ffffffffffffffffffffffffffffffffffffffff16815260200190815260200160002060008381526020019081526020016000206000905550505050565b600060016009805490506127f6919061403d565b90506000600a6000848152602001908152602001600020549050600060098381548110612826576128256137e7565b5b906000526020600020015490508060098381548110612848576128476137e7565b5b906000526020600020018190555081600a600083815260200190815260200160002081905550600a600085815260200190815260200160002060009055600980548061289757612896614071565b5b6001900381819060005260206000200160009055905550505050565b60006128be83610c9a565b905081600760008573ffffffffffffffffffffffffffffffffffffffff1673ffffffffffffffffffffffffffffffffffffffff168152602001908152602001600020600083815260200190815260200160002081905550806008600084815260200190815260200160002081905550505050565b600080600090507a184f03e93ff9f4daa797ed6e38ed64bf6a1f0100000000000000008310612990577a184f03e93ff9f4daa797ed6e38ed64bf6a1f010000000000000000838161298657612985613fdf565b5b0492506040810190505b6d04ee2d6d415b85acef810000000083106129cd576d04ee2d6d415b85acef810000000083816129c3576129c2613fdf565b5b0492506020810190505b662386f26fc1000083106129fc57662386f26fc1000083816129f2576129f1613fdf565b5b0492506010810190505b6305f5e1008310612a25576305f5e1008381612a1b57612a1a613fdf565b5b0492506008810190505b6127108310612a4a576127108381612a4057612a3f613fdf565b5b0492506004810190505b60648310612a6d5760648381612a6357612a62613fdf565b5b0492506002810190505b600a8310612a7c576001810190505b80915050919050565b508054612a919061325e565b6000825580601f10612aa35750612ac2565b601f016020900490600052602060002090810190612ac19190612ac5565b5b50565b5b80821115612ade576000816000905550600101612ac6565b5090565b6000604051905090565b600080fd5b600080fd5b60007fffffffff0000000000000000000000000000000000000000000000000000000082169050919050565b612b2b81612af6565b8114612b3657600080fd5b50565b600081359050612b4881612b22565b92915050565b600060208284031215612b6457612b63612aec565b5b6000612b7284828501612b39565b91505092915050565b60008115159050919050565b612b9081612b7b565b82525050565b6000602082019050612bab6000830184612b87565b92915050565b600081519050919050565b600082825260208201905092915050565b60005b83811015612beb578082015181840152602081019050612bd0565b60008484015250505050565b6000601f19601f8301169050919050565b6000612c1382612bb1565b612c1d8185612bbc565b9350612c2d818560208601612bcd565b612c3681612bf7565b840191505092915050565b60006020820190508181036000830152612c5b8184612c08565b905092915050565b6000819050919050565b612c7681612c63565b8114612c8157600080fd5b50565b600081359050612c9381612c6d565b92915050565b600060208284031215612caf57612cae612aec565b5b6000612cbd84828501612c84565b91505092915050565b600073ffffffffffffffffffffffffffffffffffffffff82169050919050565b6000612cf182612cc6565b9050919050565b612d0181612ce6565b82525050565b6000602082019050612d1c6000830184612cf8565b92915050565b612d2b81612ce6565b8114612d3657600080fd5b50565b600081359050612d4881612d22565b92915050565b60008060408385031215612d6557612d64612aec565b5b6000612d7385828601612d39565b9250506020612d8485828601612c84565b9150509250929050565b600080fd5b600080fd5b7f4e487b7100000000000000000000000000000000000000000000000000000000600052604160045260246000fd5b612dd082612bf7565b810181811067ffffffffffffffff82111715612def57612dee612d98565b5b80604052505050565b6000612e02612ae2565b9050612e0e8282612dc7565b919050565b600067ffffffffffffffff821115612e2e57612e2d612d98565b5b612e3782612bf7565b9050602081019050919050565b82818337600083830152505050565b6000612e66612e6184612e13565b612df8565b905082815260208101848484011115612e8257612e81612d93565b5b612e8d848285612e44565b509392505050565b600082601f830112612eaa57612ea9612d8e565b5b8135612eba848260208601612e53565b91505092915050565b60008060008060808587031215612edd57612edc612aec565b5b600085013567ffffffffffffffff811115612efb57612efa612af1565b5b612f0787828801612e95565b9450506020612f1887828801612d39565b935050604085013567ffffffffffffffff811115612f3957612f38612af1565b5b612f4587828801612e95565b925050606085013567ffffffffffffffff811115612f6657612f65612af1565b5b612f7287828801612e95565b91505092959194509250565b612f8781612c63565b82525050565b6000602082019050612fa26000830184612f7e565b92915050565b600080600060608486031215612fc157612fc0612aec565b5b6000612fcf86828701612d39565b9350506020612fe086828701612d39565b9250506040612ff186828701612c84565b9150509250925092565b600060408201905081810360008301526130158185612c08565b905081810360208301526130298184612c08565b90509392505050565b60006020828403121561304857613047612aec565b5b600061305684828501612d39565b91505092915050565b61306881612b7b565b811461307357600080fd5b50565b6000813590506130858161305f565b92915050565b600080604083850312156130a2576130a1612aec565b5b60006130b085828601612d39565b92505060206130c185828601613076565b9150509250929050565b600067ffffffffffffffff8211156130e6576130e5612d98565b5b6130ef82612bf7565b9050602081019050919050565b600061310f61310a846130cb565b612df8565b90508281526020810184848401111561312b5761312a612d93565b5b613136848285612e44565b509392505050565b600082601f83011261315357613152612d8e565b5b81356131638482602086016130fc565b91505092915050565b6000806000806080858703121561318657613185612aec565b5b600061319487828801612d39565b94505060206131a587828801612d39565b93505060406131b687828801612c84565b925050606085013567ffffffffffffffff8111156131d7576131d6612af1565b5b6131e38782880161313e565b91505092959194509250565b6000806040838503121561320657613205612aec565b5b600061321485828601612d39565b925050602061322585828601612d39565b9150509250929050565b7f4e487b7100000000000000000000000000000000000000000000000000000000600052602260045260246000fd5b6000600282049050600182168061327657607f821691505b6020821081036132895761328861322f565b5b50919050565b7f4552433732313a20617070726f76616c20746f2063757272656e74206f776e6560008201527f7200000000000000000000000000000000000000000000000000000000000000602082015250565b60006132eb602183612bbc565b91506132f68261328f565b604082019050919050565b6000602082019050818103600083015261331a816132de565b9050919050565b7f4552433732313a20617070726f76652063616c6c6572206973206e6f7420746f60008201527f6b656e206f776e6572206f7220617070726f76656420666f7220616c6c000000602082015250565b600061337d603d83612bbc565b915061338882613321565b604082019050919050565b600060208201905081810360008301526133ac81613370565b9050919050565b60008190508160005260206000209050919050565b60006020601f8301049050919050565b600082821b905092915050565b6000600883026134157fffffffffffffffffffffffffffffffffffffffffffffffffffffffffffffffff826133d8565b61341f86836133d8565b95508019841693508086168417925050509392505050565b6000819050919050565b600061345c61345761345284612c63565b613437565b612c63565b9050919050565b6000819050919050565b61347683613441565b61348a61348282613463565b8484546133e5565b825550505050565b600090565b61349f613492565b6134aa81848461346d565b505050565b5b818110156134ce576134c3600082613497565b6001810190506134b0565b5050565b601f821115613513576134e4816133b3565b6134ed846133c8565b810160208510156134fc578190505b613510613508856133c8565b8301826134af565b50505b505050565b600082821c905092915050565b600061353660001984600802613518565b1980831691505092915050565b600061354f8383613525565b9150826002028217905092915050565b61356882612bb1565b67ffffffffffffffff81111561358157613580612d98565b5b61358b825461325e565b6135968282856134d2565b600060209050601f8311600181146135c957600084156135b7578287015190505b6135c18582613543565b865550613629565b601f1984166135d7866133b3565b60005b828110156135ff578489015182556001820191506020850194506020810190506135da565b8683101561361c5784890151613618601f891682613525565b8355505b6001600288020188555050505b505050505050565b7f4552433732313a2063616c6c6572206973206e6f7420746f6b656e206f776e6560008201527f72206f7220617070726f76656400000000000000000000000000000000000000602082015250565b600061368d602d83612bbc565b915061369882613631565b604082019050919050565b600060208201905081810360008301526136bc81613680565b9050919050565b7f455243373231456e756d657261626c653a206f776e657220696e646578206f7560008201527f74206f6620626f756e6473000000000000000000000000000000000000000000602082015250565b600061371f602b83612bbc565b915061372a826136c3565b604082019050919050565b6000602082019050818103600083015261374e81613712565b9050919050565b7f455243373231456e756d657261626c653a20676c6f62616c20696e646578206f60008201527f7574206f6620626f756e64730000000000000000000000000000000000000000602082015250565b60006137b1602c83612bbc565b91506137bc82613755565b604082019050919050565b600060208201905081810360008301526137e0816137a4565b9050919050565b7f4e487b7100000000000000000000000000000000000000000000000000000000600052603260045260246000fd5b7f4552433732313a20696e76616c696420746f6b656e2049440000000000000000600082015250565b600061384c601883612bbc565b915061385782613816565b602082019050919050565b6000602082019050818103600083015261387b8161383f565b9050919050565b7f4552433732313a2061646472657373207a65726f206973206e6f74206120766160008201527f6c6964206f776e65720000000000000000000000000000000000000000000000602082015250565b60006138de602983612bbc565b91506138e982613882565b604082019050919050565b6000602082019050818103600083015261390d816138d1565b9050919050565b7f4f776e61626c653a206e6577206f776e657220697320746865207a65726f206160008201527f6464726573730000000000000000000000000000000000000000000000000000602082015250565b6000613970602683612bbc565b915061397b82613914565b604082019050919050565b6000602082019050818103600083015261399f81613963565b9050919050565b7f4f776e61626c653a2063616c6c6572206973206e6f7420746865206f776e6572600082015250565b60006139dc602083612bbc565b91506139e7826139a6565b602082019050919050565b60006020820190508181036000830152613a0b816139cf565b9050919050565b7f45524337323155524953746f726167653a2055524920736574206f66206e6f6e60008201527f6578697374656e7420746f6b656e000000000000000000000000000000000000602082015250565b6000613a6e602e83612bbc565b9150613a7982613a12565b604082019050919050565b60006020820190508181036000830152613a9d81613a61565b9050919050565b7f4552433732313a207472616e736665722066726f6d20696e636f72726563742060008201527f6f776e6572000000000000000000000000000000000000000000000000000000602082015250565b6000613b00602583612bbc565b9150613b0b82613aa4565b604082019050919050565b60006020820190508181036000830152613b2f81613af3565b9050919050565b7f4552433732313a207472616e7366657220746f20746865207a65726f2061646460008201527f7265737300000000000000000000000000000000000000000000000000000000602082015250565b6000613b92602483612bbc565b9150613b9d82613b36565b604082019050919050565b60006020820190508181036000830152613bc181613b85565b9050919050565b7f4552433732313a20617070726f766520746f2063616c6c657200000000000000600082015250565b6000613bfe601983612bbc565b9150613c0982613bc8565b602082019050919050565b60006020820190508181036000830152613c2d81613bf1565b9050919050565b7f4552433732313a207472616e7366657220746f206e6f6e20455243373231526560008201527f63656976657220696d706c656d656e7465720000000000000000000000000000602082015250565b6000613c90603283612bbc565b9150613c9b82613c34565b604082019050919050565b60006020820190508181036000830152613cbf81613c83565b9050919050565b600081905092915050565b6000613cdc82612bb1565b613ce68185613cc6565b9350613cf6818560208601612bcd565b80840191505092915050565b6000613d0e8285613cd1565b9150613d1a8284613cd1565b91508190509392505050565b7f546f6b656e206e6f74207472616e7366657261626c6500000000000000000000600082015250565b6000613d5c601683612bbc565b9150613d6782613d26565b602082019050919050565b60006020820190508181036000830152613d8b81613d4f565b9050919050565b600081519050919050565b600082825260208201905092915050565b6000613db982613d92565b613dc38185613d9d565b9350613dd3818560208601612bcd565b613ddc81612bf7565b840191505092915050565b6000608082019050613dfc6000830187612cf8565b613e096020830186612cf8565b613e166040830185612f7e565b8181036060830152613e288184613dae565b905095945050505050565b600081519050613e4281612b22565b92915050565b600060208284031215613e5e57613e5d612aec565b5b6000613e6c84828501613e33565b91505092915050565b7f4552433732313a206d696e7420746f20746865207a65726f2061646472657373600082015250565b6000613eab602083612bbc565b9150613eb682613e75565b602082019050919050565b60006020820190508181036000830152613eda81613e9e565b9050919050565b7f4552433732313a20746f6b656e20616c7265616479206d696e74656400000000600082015250565b6000613f17601c83612bbc565b9150613f2282613ee1565b602082019050919050565b60006020820190508181036000830152613f4681613f0a565b9050919050565b7f455243373231456e756d657261626c653a20636f6e736563757469766520747260008201527f616e7366657273206e6f7420737570706f727465640000000000000000000000602082015250565b6000613fa9603583612bbc565b9150613fb482613f4d565b604082019050919050565b60006020820190508181036000830152613fd881613f9c565b9050919050565b7f4e487b7100000000000000000000000000000000000000000000000000000000600052601260045260246000fd5b7f4e487b7100000000000000000000000000000000000000000000000000000000600052601160045260246000fd5b600061404882612c63565b915061405383612c63565b925082820390508181111561406b5761406a61400e565b5b92915050565b7f4e487b7100000000000000000000000000000000000000000000000000000000600052603160045260246000fdfea2646970667358221220cf2127fb05810eaa71799adbe18d8a935d2254179d4aa3b761cdc9f39ea320ac64736f6c63430008130033",
  "immutableReferences": {},
  "source": "// SPDX-License-Identifier: GPL-3.0\npragma solidity ^0.8.10;\nimport \"../node_modules/@openzeppelin/contracts/token/ERC721/ERC721.sol\";\nimport \"../node_modules/@openzeppelin/contracts/token/ERC721/extensions/ERC721URIStorage.sol\";\nimport \"../node_modules/@openzeppelin/contracts/token/ERC721/extensions/ERC721Burnable.sol\";\nimport \"../node_modules/@openzeppelin/contracts/utils/Counters.sol\";\nimport \"../node_modules/@openzeppelin/contracts/access/Ownable.sol\";\nimport \"../node_modules/@openzeppelin/contracts/token/ERC721/extensions/ERC721Enumerable.sol\";\nimport \"../node_modules/@openzeppelin/contracts/token/ERC5192/IERC5192.sol\";\n\n\ncontract SBT is ERC721, Ownable, ERC721Burnable, ERC721Enumerable, ERC721URIStorage, IERC5192{\n    using Counters for Counters.Counter;\n    Counters.Counter private _tokenIds;\n\n    constructor() ERC721(\"Soulbound2\", \"SBT2\") {}\n\n    struct User{\n        string UserName;\n        string UserInformation;\n    }\n    mapping(uint256 => User) public user;\n\n     function mintSBT2(string memory tokenURI, address account, string memory _userName, string memory _userInformation) public onlyOwner returns(uint256){\n        uint256 newTokenId = _tokenIds.current();\n        _safeMint(account, newTokenId);\n        _setTokenURI(newTokenId, tokenURI);\n      \n        user[newTokenId] = User(_userName, _userInformation);\n\n        _tokenIds.increment();\n        return newTokenId;\n    }\n\n    mapping(uint256 => bool) private _isLock;\n\n    function locked(uint256 tokenId) external override view returns(bool){\n        return _isLock[tokenId];\n    }\n\n    function lockToken(uint256 tokenId) public{\n        _isLock[tokenId] = true;\n        emit Locked(tokenId);\n    }\n\n    function unlockToken(uint256 tokenId) private{\n        _isLock[tokenId] = false;\n        emit Unlocked(tokenId);\n     }\n\n     function supportsInterface(bytes4 interfaceId) public view virtual override(ERC721, ERC721Enumerable) returns (bool) {\n        return super.supportsInterface(interfaceId);\n    }\n\n    function _beforeTokenTransfer(address from, address to, uint256 tokenId, uint256 batchSize)internal override(ERC721, ERC721Enumerable)\n    {\n        require(from == address(0), \"Token not transferable\");\n        super._beforeTokenTransfer(from, to, tokenId, batchSize);\n    }\n\n    // function safeMint(address to) public onlyOwner(\n    //     uint256 tokenId = _tokenIds.current();\n    //     _tokenIds.increment();\n    //     _safeMint(to, tokenId);\n    // )\n\n    function _burn(uint256 tokenId) internal override(ERC721, ERC721URIStorage){\n        unlockToken(tokenId);\n        super._burn(tokenId);\n    }\n\n    function tokenURI(uint256 tokenId) public view override(ERC721, ERC721URIStorage) returns (string memory) {\n        return super.tokenURI(tokenId);\n    }\n\n    function getUserName(uint256 tokenId) public view returns(string memory){\n        return user[tokenId].UserName;\n    }\n\n    function getUserInformation(uint256 tokenId) public view returns(string memory){\n        return user[tokenId].UserInformation;\n    }\n\n    function showTokenId() public view returns (uint256){\n        return _tokenIds.current();\n    }\n\n\n}",
  "sourcePath": "/Users/choejasil/BCpofolnet/truffle/contracts/SBT.sol",
  "compiler": {
    "name": "solc",
    "version": "0.8.19+commit.7dd6d404.Emscripten.clang"
  },
  "schemaVersion": "3.4.13",
  "updatedAt": "2023-05-22T11:51:40.145Z",
  "networkType": "ethereum",
  "devdoc": {
    "events": {
      "Approval(address,address,uint256)": {
        "details": "Emitted when `owner` enables `approved` to manage the `tokenId` token."
      },
      "ApprovalForAll(address,address,bool)": {
        "details": "Emitted when `owner` enables or disables (`approved`) `operator` to manage all of its assets."
      },
      "Locked(uint256)": {
        "details": "If a token is minted and the status is locked, this event should be emitted.",
        "params": {
          "tokenId": "The identifier for a token."
        }
      },
      "Transfer(address,address,uint256)": {
        "details": "Emitted when `tokenId` token is transferred from `from` to `to`."
      },
      "Unlocked(uint256)": {
        "details": "If a token is minted and the status is unlocked, this event should be emitted.",
        "params": {
          "tokenId": "The identifier for a token."
        }
      }
    },
    "kind": "dev",
    "methods": {
      "approve(address,uint256)": {
        "details": "See {IERC721-approve}."
      },
      "balanceOf(address)": {
        "details": "See {IERC721-balanceOf}."
      },
      "burn(uint256)": {
        "details": "Burns `tokenId`. See {ERC721-_burn}. Requirements: - The caller must own `tokenId` or be an approved operator."
      },
      "getApproved(uint256)": {
        "details": "See {IERC721-getApproved}."
      },
      "isApprovedForAll(address,address)": {
        "details": "See {IERC721-isApprovedForAll}."
      },
      "locked(uint256)": {
        "details": "SBTs assigned to zero address are considered invalid, and queries about them do throw.",
        "params": {
          "tokenId": "The identifier for an SBT."
        }
      },
      "name()": {
        "details": "See {IERC721Metadata-name}."
      },
      "owner()": {
        "details": "Returns the address of the current owner."
      },
      "ownerOf(uint256)": {
        "details": "See {IERC721-ownerOf}."
      },
      "renounceOwnership()": {
        "details": "Leaves the contract without owner. It will not be possible to call `onlyOwner` functions anymore. Can only be called by the current owner. NOTE: Renouncing ownership will leave the contract without an owner, thereby removing any functionality that is only available to the owner."
      },
      "safeTransferFrom(address,address,uint256)": {
        "details": "See {IERC721-safeTransferFrom}."
      },
      "safeTransferFrom(address,address,uint256,bytes)": {
        "details": "See {IERC721-safeTransferFrom}."
      },
      "setApprovalForAll(address,bool)": {
        "details": "See {IERC721-setApprovalForAll}."
      },
      "symbol()": {
        "details": "See {IERC721Metadata-symbol}."
      },
      "tokenByIndex(uint256)": {
        "details": "See {IERC721Enumerable-tokenByIndex}."
      },
      "tokenOfOwnerByIndex(address,uint256)": {
        "details": "See {IERC721Enumerable-tokenOfOwnerByIndex}."
      },
      "totalSupply()": {
        "details": "See {IERC721Enumerable-totalSupply}."
      },
      "transferFrom(address,address,uint256)": {
        "details": "See {IERC721-transferFrom}."
      },
      "transferOwnership(address)": {
        "details": "Transfers ownership of the contract to a new account (`newOwner`). Can only be called by the current owner."
      }
    },
    "version": 1
  },
  "userdoc": {
    "events": {
      "Locked(uint256)": {
        "notice": "Emitted when the locking status is changed to locked."
      },
      "Unlocked(uint256)": {
        "notice": "Emitted when the locking status is changed to unlocked."
      }
    },
    "kind": "user",
    "methods": {
      "locked(uint256)": {
        "notice": "Returns the locking status of an Soulbound Token"
      }
    },
    "version": 1
  }
}